:020000040800F2
:100000000000012079240008591A00085F1A00082E
:10001000651A00086B1A0008711A00080000000039
:10002000000000000000000000000000771A000837
:10003000831A0008000000008F1A00089B1A0008AD
:10004000C1240008C1240008C1240008C1240008FC
:10005000C1240008C1240008C1240008C1240008EC
:10006000C1240008C1240008C1240008C1240008DC
:10007000C1240008C1240008C1240008C1240008CC
:10008000C1240008C1240008C1240008C1240008BC
:10009000C1240008C1240008C1240008C1240008AC
:1000A000C1240008C1240008C1240008C12400089C
:1000B000C1240008C1240008C1240008C12400088C
:1000C000C1240008C1240008C1240008C12400087C
:1000D000C1240008C1240008C1240008C12400086C
:1000E000C1240008C1240008C1240008C12400085C
:1000F000C1240008C1240008C1240008C12400084C
:10010000C1240008C1240008C1240008C12400083B
:10011000C1240008C1240008A91A0008C12400084D
:10012000C1240008C1240008C1240008C12400081B
:1001300000000000000000000000000000000000BF
:1001400000000000000000000000000000000000AF
:10015000000000000000000000000000000000009F
:10016000000000000000000000000000000000008F
:10017000000000000000000000000000000000007F
:10018000000000000000000000000000000000006F
:10019000000000000000000000000000000000005F
:1001A000000000000000000000000000000000004F
:1001B000000000000000000000000000000000003F
:1001C000000000000000000000000000000000002F
:1001D000000000000000000000000000000000001F
:0401E0005FF8E0F1F3
:1001E40010B5054C237833B9044B13B10448AFF36D
:1001F40000800123237010BD2800002000000000AF
:10020400C05A000808B5034B1BB103490348AFF3B8
:10021400008008BD000000002C000020C05A000827
:1002240081F0004102E000BF83F0004330B54FEAA3
:1002340041044FEA430594EA050F08BF90EA020F10
:100244001FBF54EA000C55EA020C7FEA645C7FEAA3
:10025400655C00F0E2804FEA5454D4EB5555B8BFC6
:100264006D420CDD2C4480EA020281EA030382EA37
:10027400000083EA010180EA020281EA0303362DC9
:1002840088BF30BD11F0004F4FEA01314FF4801C9C
:100294004CEA113102D0404261EB410113F0004FAE
:1002A4004FEA03334CEA133302D0524263EB430365
:1002B40094EA050F00F0A780A4F10104D5F1200E03
:1002C4000DDB02FA0EFC22FA05F2801841F100015E
:1002D40003FA0EF2801843FA05F359410EE0A5F132
:1002E40020050EF1200E012A03FA0EFC28BF4CF063
:1002F400020C43FA05F3C01851EBE37101F0004519
:1003040007D54FF0000EDCF1000C7EEB00006EEB25
:100314000101B1F5801F1BD3B1F5001F0CD34908AF
:100324005FEA30004FEA3C0C04F101044FEA445206
:1003340012F5800F80F09A80BCF1004F08BF5FEA8D
:10034400500C50F1000041EB045141EA050130BD6D
:100354005FEA4C0C404141EB0101013C28BFB1F57F
:10036400801FE9D291F0000F04BF01460020B1FACA
:1003740081F308BF2033A3F10B03B3F120020CDA9D
:100384000C3208DD02F1140CC2F10C0201FA0CF07B
:1003940021FA02F10CE002F11402D8BFC2F1200CE0
:1003A40001FA02F120FA0CFCDCBF41EA0C01904096
:1003B400E41AA2BF01EB0451294330BD6FEA0404DF
:1003C4001F3C1CDA0C340EDC04F11404C4F12002CA
:1003D40020FA04F001FA02F340EA030021FA04F3DC
:1003E40045EA030130BDC4F10C04C4F1200220FA33
:1003F40002F001FA04F340EA0300294630BD21FA71
:1004040004F0294630BD94F0000F83F4801306BF36
:1004140081F480110134013D4EE77FEA645C18BF2A
:100424007FEA655C29D094EA050F08BF90EA020FC1
:1004340005D054EA000C04BF1946104630BD91EAB9
:10044400030F1EBF0021002030BD5FEA545C05D1BC
:100454004000494128BF41F0004130BD14F58004FB
:100464003CBF01F5801130BD01F0004545F0FE416F
:1004740041F470014FF0000030BD7FEA645C1ABFA4
:10048400194610467FEA655C1CBF0B46024650EADB
:10049400013406BF52EA033591EA030F41F4002107
:1004A40030BD00BF90F0000F04BF0021704730B58D
:1004B4004FF4806404F132044FF000054FF0000162
:1004C40050E700BF90F0000F04BF0021704730B523
:1004D4004FF4806404F1320410F0004548BF4042F8
:1004E4004FF000013EE700BF42004FEAE2014FEA4D
:1004F40031014FEA02701FBF12F07F4393F07F4F28
:1005040081F06051704732F07F4208BF704793F02A
:100514007F4F04BF41F40021704730B54FF460743D
:1005240001F0004521F000411CE700BF50EA010240
:1005340008BF704730B54FF000050AE050EA0102E9
:1005440008BF704730B511F0004502D5404261EB59
:1005540041014FF4806404F132045FEA915C3FF49A
:10056400D8AE4FF003025FEADC0C18BF03325FEA37
:10057400DC0C18BF033202EBDC02C2F1200300FAE8
:1005840003FC20FA02F001FA03FE40EA0E0021FA0D
:1005940002F11444BDE600BF4FEA4102B2F1E04368
:1005A40024BFB3F5001CDCF1FE5C0DD901F0004C56
:1005B4004FEAC0024CEA5070B2F1004F40EB8300A6
:1005C40008BF20F00100704711F0804F21D113F1D2
:1005D4003872BCBF01F00040704741F480114FEA0B
:1005E4005252C2F11802C2F1200C10FA0CF320FA94
:1005F40002F018BF40F001004FEAC1234FEAD323B1
:1006040003FA0CFC40EA0C0023FA02F34FEA43031A
:10061400CCE77FEA625307D150EA01331EBF4FF0A3
:10062400FE4040F44000704701F0004040F0FE40BE
:1006340040F40000704700BF80F0004002E000BFBB
:1006440081F0004142001FBF5FEA410392EA030FB9
:100654007FEA226C7FEA236C6AD04FEA1262D2EB03
:100664001363C1BFD218414048404140B8BF5B4208
:10067400192B88BF704710F0004F40F4000020F0A1
:100684007F4018BF404211F0004F41F4000121F0B7
:100694007F4118BF494292EA030F3FD0A2F1010201
:1006A40041FA03FC10EB0C00C3F1200301FA03F13F
:1006B40000F0004302D5494260EB4000B0F5000F62
:1006C40013D3B0F1807F06D340084FEA310102F121
:1006D4000102FE2A51D2B1F1004F40EBC25008BFD3
:1006E40020F0010040EA03007047490040EB00009D
:1006F400013A28BFB0F5000FEDD2B0FA80FCACF19E
:10070400080CB2EB0C0200FA0CF0AABF00EBC250CA
:1007140052421843BCBFD0401843704792F0000FB8
:1007240081F4000106BF80F400000132013BB5E70B
:100734004FEA41037FEA226C18BF7FEA236C21D081
:1007440092EA030F04D092F0000F08BF08467047E6
:1007540090EA010F1CBF0020704712F07F4F04D1B4
:10076400400028BF40F00040704712F100723CBFC7
:1007740000F50000704700F0004343F0FE4040F4F1
:10078400000070477FEA226216BF08467FEA2363AF
:100794000146420206BF5FEA412390EA010F40F49A
:1007A400800070474FF0000304E000BF10F00043E6
:1007B40048BF40425FEA000C08BF704743F09643CD
:1007C40001464FF000001CE050EA010208BF7047E8
:1007D4004FF000030AE000BF50EA010208BF70476F
:1007E40011F0004302D5404261EB41015FEA010C84
:1007F40002BF84460146002043F0B64308BFA3F17C
:100804008053A3F50003BCFA8CF2083AA3EBC2535D
:1008140010DB01FA02FC634400FA02FCC2F120027C
:10082400BCF1004F20FA02F243EB020008BF20F0B3
:100834000100704702F1200201FA02FCC2F1200219
:1008440050EA4C0021FA02F243EB020008BF20EA0E
:10085400DC7070474FF0FF0C1CEAD0521EBF1CEA3C
:10086400D15392EA0C0F93EA0C0F6FD01A4480EA2A
:10087400010C400218BF5FEA41211ED04FF0006313
:1008840043EA501043EA5111A0FB01310CF000403F
:10089400B1F5000F3EBF490041EAD3715B0040EA65
:1008A400010062F17F02FD2A1DD8B3F1004F40EB35
:1008B400C25008BF20F00100704790F0000F0CF008
:1008C400004C08BF49024CEA502040EA51207F3ACC
:1008D400C2BFD2F1FF0340EAC250704740F40000A7
:1008E4004FF00003013A5DDC12F1190FDCBF00F098
:1008F40000407047C2F10002410021FA02F1C2F146
:10090400200200FA02FC5FEA310040F1000053EAE1
:100914004C0308BF20EADC70704792F0000F00F02F
:10092400004C02BF400010F4000F013AF9D040EA35
:100934000C0093F0000F01F0004C02BF490011F4C9
:10094400000F013BF9D041EA0C018FE70CEAD153C7
:1009540092EA0C0F18BF93EA0C0F0AD030F0004C47
:1009640018BF31F0004CD8D180EA010000F00040FB
:10097400704790F0000F17BF90F0004F084691F0B9
:10098400000F91F0004F14D092EA0C0F01D14202F3
:100994000FD193EA0C0F03D14B0218BF084608D1BC
:1009A40080EA010000F0004040F0FE4040F4000006
:1009B400704740F0FE4040F4400070474FF0FF0C99
:1009C4001CEAD0521EBF1CEAD15392EA0C0F93EAE0
:1009D4000C0F69D0A2EB030280EA010C49024FEA32
:1009E400402037D04FF0805343EA111143EA1013EB
:1009F4000CF000408B4238BF5B0042F17D024FF4A3
:100A0400000C8B4224BF5B1A40EA0C00B3EB510F7D
:100A140024BFA3EB510340EA5C00B3EB910F24BF66
:100A2400A3EB910340EA9C00B3EBD10F24BFA3EBEB
:100A3400D10340EADC001B0118BF5FEA1C1CE0D1B3
:100A4400FD2A3FF650AF8B4240EBC25008BF20F066
:100A5400010070470CF0004C4CEA50207F32C2BFBA
:100A6400D2F1FF0340EAC250704740F400004FF057
:100A74000003013A37E792F0000F00F0004C02BF88
:100A8400400010F4000F013AF9D040EA0C0093F052
:100A9400000F01F0004C02BF490011F4000F013BAC
:100AA400F9D041EA0C0195E70CEAD15392EA0C0F14
:100AB40008D142027FF47DAF93EA0C0F7FF470AF4C
:100AC400084676E793EA0C0F04D14B023FF44CAF8F
:100AD40008466EE730F0004C18BF31F0004CCAD124
:100AE40030F000427FF45CAF31F000437FF43CAF60
:100AF4005FE700BF4FF0FF3C06E000BF4FF0010C82
:100B040002E000BF4FF0010C4DF804CD4FEA400263
:100B14004FEA41037FEA226C18BF7FEA236C11D0AD
:100B240001B052EA530C18BF90EA010F58BFB2EB60
:100B3400030088BFC81738BF6FEAE17018BF40F0E0
:100B4400010070477FEA226C02D15FEA402C05D194
:100B54007FEA236CE4D15FEA412CE1D05DF8040B19
:100B6400704700BF844608466146FFE70FB5FFF7AC
:100B7400C9FF002848BF10F1000F0FBD4DF808ED64
:100B8400FFF7F4FF0CBF012000205DF808FB00BF55
:100B94004DF808EDFFF7EAFF34BF012000205DF8AF
:100BA40008FB00BF4DF808EDFFF7E0FF94BF0120FC
:100BB40000205DF808FB00BF4DF808EDFFF7D2FFF9
:100BC40094BF012000205DF808FB00BF4DF808ED3C
:100BD400FFF7C8FF34BF012000205DF808FB00BF09
:100BE4004FEA4002B2F1FE4F0FD34FF09E03B3EB36
:100BF40012620DD94FEA002343F0004310F0004F76
:100C040023FA02F018BF404270474FF000007047CB
:100C140012F1610F01D1420205D110F0004008BF6A
:100C24006FF0004070474FF00000704780B500AF90
:100C340000F07AFD00F05CFB00BF80BD80B500AF22
:100C440000F0B4F800BF80BD80B485B000AF0346A7
:100C5400FB710023FB81FB79032B41D801A252F8DD
:100C640023F000BF790C0008930C0008B10C0008B5
:100C7400CB0C00081E4B5B6A9BB2C3F5FF437F336A
:100C84009BB2FB811A4B47F6FF725A6229E04FF080
:100C940080435B6A9BB2C3F5FF437F339BB2FB8106
:100CA4004FF0804347F6FF725A621AE0114B5B6AB9
:100CB4009BB2C3F5FF437F339BB2FB810D4B47F6D9
:100CC400FF725A620DE00C4B5B6A9BB2C3F5FF43A3
:100CD4007F339BB2FB81084B47F6FF725A6200E0F8
:100CE40000BFB7F90E3018461437BD4680BC7047B4
:100CF40000080040000C00400004004080B483B0B1
:100D040000AF78600B4B1A687B681A607B68043309
:100D1400094A12681A607B680833084A12681A6024
:100D24007B680C33064A12681A6000BF0C37BD4654
:100D340080BC704744000020480000204C00002084
:100D44005000002080B500AF0020FFF77DFF034670
:100D54001A46124B1B689B1A104A13600120FFF7B6
:100D640073FF03461A460E4B1B689B1A0C4A13600A
:100D74000220FFF769FF03461A460A4B1B68134417
:100D8400084A13600320FFF75FFF03461A46064B29
:100D94001B681344044A136000BF80BD4400002054
:100DA400480000204C0000205000002080B500AF17
:100DB4004FF40051534801F0B5FF0346002B20D1F6
:100DC4004FF400414F4801F0ADFF0346002B18D10A
:100DD4004FF480414B4801F0A5FF0346012B10D18D
:100DE4000121494801F09EFF0346012B09D14FF42C
:100DF40096734FF496724FF496714FF4967000F018
:100E0400E5F84FF400513F4801F08CFF0346002BF6
:100E14001FD14FF400413B4801F084FF0346012BEE
:100E240017D10121384801F07DFF0346012B10D171
:100E34004FF48041334801F075FF0346012B08D17C
:100E44004FF4FA734FF4FA720021002000F0BEF858
:100E540026E04FF400512B4801F064FF0346012BB8
:100E64001ED14FF40041274801F05CFF0346002BDC
:100E740016D10121244801F055FF0346012B0FD15F
:100E84004FF480411F4801F04DFF0346012B07D169
:100E9400002300224FF4FA714FF4FA7000F096F830
:100EA4004FF48041174801F03DFF0346002B10D159
:100EB4004FF40041134801F035FF0346012B08D1DC
:100EC4004FF4FA734FF4FA721049104800F07EF8A8
:100ED40016E001210C4801F025FF0346002B0FD139
:100EE4004FF40051074801F01DFF0346012B07D1C1
:100EF400064B064A4FF4FA714FF4FA7000F066F8A4
:100F040000BF80BD001C0140002001400CFEFFFF1B
:100F140080B400AF024B1846BD4680BC704700BF8A
:100F24000000824490B583B000AF044608461146E1
:100F34001A462346FB800346BB800B467B80134640
:100F44003B80B7F9063013F5616F0ADBB7F9063059
:100F5400B3F5616F05DCB7F906301946002000F0DF
:100F64004FFBB7F9043013F5616F0ADBB7F90430AE
:100F7400B3F5616F05DCB7F904301946012000F0C0
:100F84003FFBB7F9023013F5616F0ADBB7F90230A2
:100F9400B3F5616F05DCB7F902301946022000F0A1
:100FA4002FFBB7F9003013F5616F0ADBB7F9003096
:100FB400B3F5616F05DCB7F900301946032000F082
:100FC4001FFB00BF0C37BD4690BD000090B585B037
:100FD40000AF0446084611461A462346FB800346E2
:100FE400BB800B467B8013463B80184B01221A7052
:100FF400174AFB881384164ABB885384144A7B8897
:101004009384134A3B88D3840023FB7316E0FB7B51
:101014000F4A103332F913301846FFF753FA0246D9
:101024000B4610461946FFF7B7FA0246FB7B1146FA
:10103400184600F095FAFB7B0133FB73FB7B032B13
:10104400E5D900BF00BF1437BD4690BD8400002021
:101054009000002080B58AB000AF786000237B62E6
:1010640007F1080300221A605A609A60DA6000F0FF
:10107400D3F83862FFF74CFFF86100F0C3F8B861A9
:1010840000F0D4F800237B621EE05A4A7B6A52F8CF
:101094002330642202FB03F31846FFF787FB034661
:1010A400396A1846FFF7D6FB0346F9691846FFF775
:1010B40085FC03461A467B6A9B0028333B4443F86D
:1010C400202C7B6A01337B627B6A032BDDDDBB68EA
:1010D400FA6811461846FFF7B5FA03461A463B6903
:1010E40019461046FFF7AEFA03461A467B691946BD
:1010F4001046FFF7A7FA03464FF081411846FFF761
:101104005DFC03461846FFF76BFD03461AB27B6885
:101114001A80BB68FA6811461846FFF791FA03462D
:101124001A463B6919461046FFF78AFA03461A46DF
:101134007B6919461046FFF785FA034683F000439E
:101144004FF081411846FFF739FC03461846FFF774
:1011540047FD03461AB27B685A80BB68FA68114699
:101164001846FFF76FFA03461A463B6919461046BC
:10117400FFF766FA03461A467B6919461046FFF7DD
:101184005FFA034683F000434FF081411846FFF7AE
:1011940015FC0346B9691846FFF710FC03461649C7
:1011A4001846FFF757FB03461846FFF719FD034699
:1011B4001AB27B689A80114B1B78002B15D0002340
:1011C4007B620CE07B6A9B0028333B4453F8202C61
:1011D4000B497B6A41F823207B6A01337B627B6A7B
:1011E400032BEFDD064800F093F900BF2837BD4616
:1011F40080BD00BF7400002000007A4484000020F9
:101204009000002080B400AF024B1846BD4680BC5D
:10121400704700BF00001F4380B400AF024B184664
:10122400BD4680BC704700BFF8334C4380B582B0E4
:1012340000AF1348FFF762FD0023FB7117E0FB7951
:101244000F4A52F82310FB790E4A52F82320FB79F7
:101254008A1A0D4941F82320FA79FB79084951F893
:101264002220084941F82320FB790133FB71FB79E3
:10127400032BE4D900BF00BF0837BD4680BD00BFC3
:10128400540000206400002074000020F8B500AF72
:101294001448FFF7DFFE144B1B78002B20D0134BB0
:1012A4001B691846FFF79CFC03461CB20F4B5B6995
:1012B4001846FFF795FC03461DB20C4B9B69184674
:1012C400FFF78EFC03461EB2084BDB691846FFF796
:1012D40087FC03461BB2324629462046FFF722FE0E
:1012E40000BFF8BD8800002084000020900000208A
:1012F40080B483B000AF00237B6062E03A497A682F
:1013040013469B001344DB000B444FF000021A60A9
:1013140035497A6813469B001344DB000B440833B9
:101324004FF000021A6030497A6813469B00134458
:10133400DB000B4418334FF000021A602A497A6824
:1013440013469B001344DB000B441C334FF0000294
:101354001A6025497A6813469B001344DB000B444A
:1013640020334FF000021A601F497A6813469B002D
:101374001344DB000B4424334FF000021A601A4973
:101384007A6813469B001344DB000B440C33174A62
:101394001A6015497A6813469B001344DB000B441A
:1013A4001033134A1A6010497A6813469B00134499
:1013B400DB000B4414334FF07C521A607B6801331A
:1013C4007B607B68032B99DD0A4B0B4A5A60094BFF
:1013D4004FF000029A60074B084ADA6000BF0C37EE
:1013E400BD4680BC704700BFB8000020CDCC4C3F48
:1013F4008FC2753D00000020CDCCCC3ECDCCCC3D81
:101404002DE9F04182B000AF786039607B681B68D9
:1014140039681846FFF714F903461A467B689A613F
:101424007B689C687B68DD687B689A697B681B6A5B
:1014340019461046FFF704F9034619462846FFF7F4
:1014440009FA03461D467B681A697B689B6919463D
:101454001046FFF7FFF9034619462846FFF7F2F84E
:10146400034698467B685D697B689E697B681B6A56
:1014740019461846FFF7E6F8034619463046FFF7C3
:10148400DFF803461A467B68DB6919461046FFF706
:10149400D9F8034619462846FFF7DCF903461946EE
:1014A4004046FFF7CFF8034619462046FFF7CAF82F
:1014B40003461A467B689A607B681A6A7B68DA611D
:1014C4007B689A697B681A627B689B680E49184638
:1014D400FFF77CFB0346002B02D07B680A4A9A6024
:1014E4007B689B6809491846FFF752FB0346002BAB
:1014F40002D07B68054A9A607B689B681846083767
:10150400BD46BDE8F08100BF0000C8440000C8C467
:1015140080B584B000AF78600023FB6016E0FA6801
:1015240013469B001344DB000C4A98187B68FA6846
:1015340053F822301946FFF763FF01467B68FA68C7
:10154400043243F82210FB680133FB60FB68032B71
:10155400E5DD00BF00BF1037BD4680BDB8000020E8
:1015640080B485B000AF03463960FB71FB79042B6E
:101574001FD8FB79042B12D10023FB600BE00F4929
:10158400FA6813469B001344DB000B443A681A6064
:10159400FB680133FB60FB68032BF0DD0AE0FA799A
:1015A400064913469B001344DB000B443A681A6057
:1015B40000E000BF1437BD4680BC7047B80000206F
:1015C40080B483B000AF0346FB80B7F90630002B2C
:1015D40005DDFB8803F5FA639BB21BB20AE0B7F999
:1015E4000630002B05DAFB88A3F5FA639BB21BB225
:1015F40000E0002318460C37BD4680BC704700004D
:1016040080B584B000AF03460A46FB711346BB8025
:10161400B7F904301846FFF7D3FF0346FB81B7F947
:101624000E30B3F5616F02DB4FF46163FB81B7F9F0
:101634000E3013F5616F02DC4FF2F013FB81FB797E
:10164400032B67D801A252F823F000BF61160008EB
:1016540093160008C5160008EF160008FB895B42C4
:101664009BB2FB81B7F90E30002B07DB2C4AB7F98C
:101674000E3053632A4B00229A634CE0284B00221D
:101684005A63B7F90E305A42254B9A6343E0FB89FB
:101694005B429BB2FB81B7F90E30002B07DB204A7B
:1016A400B7F90E30D3631E4B00221A6433E01C4B8F
:1016B4000022DA63B7F90E305A42194B1A642AE051
:1016C400B7F90E30002B07DB164AB7F90E30536317
:1016D400144B00229A631EE0124B00225A63B7F99E
:1016E4000E305A420F4B9A6315E0B7F90E30002BB7
:1016F40007DB0C4AB7F90E30D3630A4B00221A6495
:1017040009E0084B0022DA63B7F90E305A42054B60
:101714001A6400E000BF00BF1037BD4680BD00BFA3
:1017240000340140002C014080B500AF0021224864
:1017340002F0D2FA0421204802F0CEFA08211E4811
:1017440002F0CAFA0C211C4802F0C6FA00211B4818
:1017540002F0C2FA0421194802F0BEFA082117481F
:1017640002F0BAFA0C21154802F0B6FA4FF08043A1
:1017740047F6FF725A620421114802F079FD114BB9
:1017840047F6FF725A6204210F4802F071FD0F4BB5
:1017940047F6FF725A6204210D4802F069FD0D4BB1
:1017A40047F6FF725A6204210B4802F061FD0B48B0
:1017B40002F022F900BF80BD580100200803002078
:1017C400A001002000040040E801002000080040BF
:1017D40030020020000C004078020020C0020020EB
:1017E40080B582B000AF78607B681B68054A93427D
:1017F40003D1FFF7A7FAFFF749FD00BF0837BD463D
:1018040080BD00BF0010004080B58CB000AF07F170
:10181400200300221A605A609A60DA60384B9B6990
:10182400374A43F004039361354B9B6903F0040387
:10183400FB61FB69324B9B69314A43F0800393613E
:101844002F4B9B6903F08003BB61BB692C4B9B69E5
:101854002B4A43F480739361294B9B6903F480738F
:101864007B617B69264B9B69254A43F04003936166
:10187400234B9B6903F040033B613B69204B9B690D
:101884001F4A43F0200393611D4B9B6903F020031F
:10189400FB60FB681A4B9B69194A43F01003936180
:1018A400174B9B6903F01003BB60BB68144B9B6927
:1018B400134A43F008039361114B9B6903F0080337
:1018C4007B607B684FF460433B6200237B620023B0
:1018D400BB6207F1200319460A4800F08FFF012379
:1018E4003B6200237B620023BB6207F1200319469D
:1018F400054800F083FF00BF3037BD4680BD00BF00
:1019040000100240001C01400020014080B500AFDF
:1019140000F0D6FD00F015F8FFF776FF00F0D2F8DE
:1019240000F094F900F0E6F900F038FA00F08AFAD1
:1019340000F0DCFA00F010FBFFF778F9FFF77EF90E
:10194400FCE780B590B000AF07F11803282200210E
:10195400184604F0ABF83B1D00221A605A609A60E6
:10196400DA601A610123BB614FF48033FB61002309
:101974003B620123BB6202237B634FF48033BB636E
:101984004FF4E013FB6307F11803184601F0F0F974
:101994000346002B01D000F019F80F237B600223CB
:1019A400BB600023FB604FF480633B6100237B61D9
:1019B4003B1D0221184601F049FD0346002B01D0CE
:1019C40000F004F800BF4037BD4680BD80B400AFCE
:1019D40072B600BFFEE780B483B000AF78603960B0
:1019E40000BF0C37BD4680BC7047000080B584B092
:1019F40000AF164B9B69154A43F001039361134BE7
:101A04009B6903F00103BB60BB68104BDB690F4AA1
:101A140043F08053D3610D4BDB6903F080537B604B
:101A24007B68052000F07AFE094B5B68FB60FB686D
:101A340023F0E063FB60FB6843F00073FB60044A3F
:101A4400FB68536000BF1037BD4680BD00100240E4
:101A54000000014080B400AFFEE780B400AFFEE7B1
:101A640080B400AFFEE780B400AFFEE780B400AFFF
:101A7400FEE780B400AF00BFBD4680BC704780B4B1
:101A840000AF00BFBD4680BC704780B400AF00BF4C
:101A9400BD4680BC704780B500AF00F057FD00BF65
:101AA40080BD000080B500AF024802F09FFC00BF7B
:101AB40080BD00BFC002002080B400AF00BFBD469F
:101AC40080BC704780B596B000AF07F14803002290
:101AD4001A605A609A60DA6007F1400300221A60C3
:101AE4005A6007F1240300221A605A609A60DA608F
:101AF4001A615A619A613B1D20220021184603F0A5
:101B0400D5FF504B504A1A604E4B00225A604D4B41
:101B140000229A604B4B40F60F62DA60494B002278
:101B24001A61484B00225A61464B80229A6145480B
:101B340001F08EFE0346002B01D0FFF747FF4FF460
:101B44008053BB6407F1480319463E4802F0F8FE8F
:101B54000346002B01D0FFF739FF3A4801F0DEFFBE
:101B64000346002B01D0FFF731FF00233B64002321
:101B74007B6407F140031946324803F0C5FD034670
:101B8400002B01D0FFF722FF60237B620023BB629E
:101B94000023FB6200233B6300237B630023BB63BE
:101BA4000023FB6307F1240300221946254802F0B1
:101BB40025FD0346002B01D0FFF708FF07F124039E
:101BC400042219461F4802F019FD0346002B01D0D8
:101BD400FFF7FCFE07F1240308221946194802F016
:101BE4000DFD0346002B01D0FFF7F0FE07F124039F
:101BF4000C221946134802F001FD0346002B01D0C4
:101C0400FFF7E4FE00237B600023BB600023FB603E
:101C140000233B6100237B614FF40053BB6100232D
:101C24003B623B1D1946074803F03EFE0346002B6A
:101C340001D0FFF7CBFE034800F0B2FB00BF5837DA
:101C4400BD4680BD58010020002C014080B58CB0F9
:101C540000AF07F10C0324220021184603F026FFED
:101C64003B1D00221A605A60214B4FF080421A60DB
:101C74001F4B00225A601E4B00229A601C4B4FF6E9
:101C8400FF72DA601A4B00221A61194B00229A6122
:101C94000323FB6000233B6101237B610023BB61C1
:101CA4000023FB6100233B6201237B620023BB62B0
:101CB4000023FB6207F10C0319460D4802F034F9C6
:101CC4000346002B01D0FFF781FE00237B60002335
:101CD400BB603B1D1946064803F016FD0346002B66
:101CE40001D0FFF773FE00BF3037BD4680BD00BF93
:101CF400A001002080B58CB000AF07F10C032422B2
:101D04000021184603F0D2FE3B1D00221A605A60DF
:101D1400204B214A1A601F4B00225A601D4B00229F
:101D24009A601C4B4FF6FF72DA601A4B00221A615C
:101D3400184B00229A610323FB6000233B610123BB
:101D44007B610023BB610023FB6100233B62012311
:101D54007B620023BB620023FB6207F10C0319467C
:101D64000C4802F0E1F80346002B01D0FFF72EFEE9
:101D740000237B600023BB603B1D1946054803F02C
:101D8400C3FC0346002B01D0FFF720FE00BF303711
:101D9400BD4680BDE80100200004004080B58CB041
:101DA40000AF07F10C0324220021184603F07EFE45
:101DB4003B1D00221A605A60204B214A1A601F4BB7
:101DC40000225A601D4B00229A601C4B4FF6FF7292
:101DD400DA601A4B00221A61184B00229A6103231D
:101DE400FB6000233B6101237B610023BB61002373
:101DF400FB6100233B6201237B620023BB6200235F
:101E0400FB6207F10C0319460C4802F08DF80346F7
:101E1400002B01D0FFF7DAFD00237B600023BB60B9
:101E24003B1D1946054803F06FFC0346002B01D007
:101E3400FFF7CCFD00BF3037BD4680BD3002002027
:101E44000008004080B58CB000AF07F10C032422D9
:101E54000021184603F02AFE3B1D00221A605A6036
:101E6400204B214A1A601F4B00225A601D4B00224E
:101E74009A601C4B4FF6FF72DA601A4B00221A610B
:101E8400184B00229A610323FB6000233B6101236A
:101E94007B610023BB610023FB6100233B620123C0
:101EA4007B620023BB620023FB6207F10C0319462B
:101EB4000C4802F039F80346002B01D0FFF786FDE9
:101EC40000237B600023BB603B1D1946054803F0DB
:101ED4001BFC0346002B01D0FFF778FD00BF303711
:101EE400BD4680BD78020020000C004080B582B061
:101EF40000AF3B4600221A605A60154B154A1A601F
:101F0400134B41F61F425A60114B00229A60104B4A
:101F14006322DA600E4B00229A610D4801F098FCAE
:101F24000346002B01D0FFF751FD00233B60002343
:101F34007B603B461946064803F0E6FB0346002B4C
:101F440001D0FFF743FD00BF0837BD4680BD00BF89
:101F5400C00200200010004080B596B000AF07F129
:101F6400480300221A605A609A60DA6007F140035D
:101F740000221A605A6007F1240300221A605A6092
:101F84009A60DA601A615A619A613B1D202200212D
:101F9400184603F08BFD504B504A1A604E4B0022FA
:101FA4005A604D4B00229A604B4B40F60F62DA6048
:101FB400494B00221A61484B00225A61464B802249
:101FC4009A61454801F044FC0346002B01D0FFF719
:101FD400FDFC4FF48053BB6407F1480319463E48A7
:101FE40002F0AEFC0346002B01D0FFF7EFFC3A48A9
:101FF40001F094FD0346002B01D0FFF7E7FC00231A
:102004003B6400237B6407F140031946324803F024
:102014007BFB0346002B01D0FFF7D8FC60237B62D7
:102024000023BB620023FB6200233B6300237B632A
:102034000023BB630023FB6307F12403002219463A
:10204400254802F0DBFA0346002B01D0FFF7BEFC63
:1020540007F12403042219461F4802F0CFFA03466D
:10206400002B01D0FFF7B2FC07F124030822194624
:10207400194802F0C3FA0346002B01D0FFF7A6FC6F
:1020840007F124030C221946134802F0B7FA034659
:10209400002B01D0FFF79AFC00237B600023BB6078
:1020A4000023FB6000233B6100237B614FF400535A
:1020B400BB6100233B623B1D1946074803F0F4FB58
:1020C4000346002B01D0FFF781FC034800F068F9B8
:1020D40000BF5837BD4680BD0803002000340140CE
:1020E40080B586B000AF78607B681B681F4A934256
:1020F4000CD11F4B9B691E4A43F4006393611C4B34
:102104009B6903F400637B617B692AE07B681B683D
:10211400184A934214D1164BDB69154A43F0100355
:10212400D361134BDB6903F010033B613B6900226D
:102134000021362000F012FB362000F03BFB10E0BB
:102144007B681B680C4A93420BD1094B9B69084A74
:1021540043F400539361064B9B6903F40053FB6003
:10216400FB6800BF1837BD4680BD00BF002C01408E
:1021740000100240001000400034014080B592B0CD
:1021840000AF786007F12C0300221A605A609A604D
:10219400DA607B681B68B3F1804F4FD1784BDB6901
:1021A400774A43F00103D361754BDB6903F0010304
:1021B400BB62BB6A724B9B69714A43F0040393612F
:1021C4006F4B9B6903F004037B627B6A6C4B9B69D6
:1021D4006B4A43F008039361694B9B6903F008035E
:1021E4003B623B6A4FF40043FB6200233B630023E2
:1021F4007B6307F12C031946624800F0FFFA0823B9
:10220400FB6200233B6300237B6307F12C03194625
:102214005D4800F0F3FA5D4B5B68FB63FB6B23F4F2
:102224004073FB63FB6B43F0E063FB63FB6B43F4C2
:102234008073FB63554AFB6B53609DE07B681B68AE
:10224400534A934236D14E4BDB694D4A43F0020365
:10225400D3614B4BDB6903F00203FB61FB69484B21
:102264009B69474A43F008039361454B9B6903F01C
:102274000803BB61BB693023FB6200233B6300237B
:102284007B6307F12C0319463F4800F0B7FA3F4B34
:102294005B683B643B6C23F440633B643B6C43F0FE
:1022A400E0633B643B6C43F400633B64374A3B6C40
:1022B400536061E07B681B68364A934233D1304BEC
:1022C400DB692F4A43F00403D3612D4BDB6903F030
:1022D40004037B617B692A4B9B69294A43F02003F1
:1022E4009361274B9B6903F020033B613B694FF4E7
:1022F4004053FB6200233B6300237B6307F12C0301
:102304001946254800F07AFA204B5B687B647B6CA5
:1023140043F0E0637B647B6C43F480537B641B4A2F
:102324007B6C536028E07B681B681C4A934223D172
:10233400134BDB69124A43F00803D361104BDB698A
:1023440003F00803FB60FB680D4B9B690C4A43F0E8
:10235400040393610A4B9B6903F00403BB60BB68ED
:102364000323FB6200233B6300237B6307F12C03FD
:102374001946044800F042FA00BF4837BD4680BD04
:102384000010024000080140000C01400000014020
:10239400000400400008004000140140000C00400C
:1023A40080B58AB000AF786007F1140300221A6088
:1023B4005A609A60DA607B681B68284A93422BD182
:1023C400274B9B69264A43F040039361244B9B6946
:1023D40003F040033B613B694FF4D4437B61022328
:1023E400BB6102233B6207F1140319461D4800F048
:1023F40005FA1D4B5B687B627B6A23F0C0037B623A
:102404007B6A43F0E0637B627B6A43F0C0037B62D8
:10241400154A7B6A53601DE07B681B68134A93422C
:1024240018D10F4B9B690E4A43F0100393610C4B78
:102434009B6903F01003FB60FB684FF470737B61CE
:102444000223BB6102233B6207F1140319460848C7
:1024540000F0D4F900BF2837BD4680BD002C0140F0
:102464000010024000180140000001400034014007
:1024740000100140FFF720FB0B480C490C4A0023D5
:1024840002E0D458C4500433C4188C42F9D3094A26
:10249400094C002301E013600432A242FBD303F091
:1024A400E1FAFFF733FA704700000020280000200B
:1024B400285C00082800002054030020FEE70000E8
:1024C40080B500AF084B1B68074A43F01003136044
:1024D400032000F023F9032000F008F8FFF786FA40
:1024E4000023184680BD00BF0020024080B582B0A2
:1024F40000AF7860124B1A68124B1B7819464FF4E0
:102504007A73B3FBF1F3B2FBF3F3184600F06AF904
:102514000346002B01D001230EE07B680F2B0AD861
:10252400002279684FF0FF3000F018F9064A7B6802
:102534001360002300E0012318460837BD4680BD20
:102544001C000020240000202000002080B400AFE4
:10255400054B1B781A46054B1B681344034A13604A
:1025640000BFBD4680BC70472400002050030020FB
:1025740080B400AF024B1B681846BD4680BC704750
:102584005003002080B485B000AF78607B6803F00E
:102594000703FB600C4BDB68BB60BA684FF6FF03B4
:1025A4001340BB60FB681A02BB68134343F0BF636C
:1025B40043F40033BB60044ABB68D36000BF1437E4
:1025C400BD4680BC704700BF00ED00E080B400AFA2
:1025D400044BDB681B0A03F007031846BD4680BCA6
:1025E400704700BF00ED00E080B483B000AF034645
:1025F400FB7197F90730002B0BDBFB7903F01F020B
:10260400064997F907305B09012000FA02F241F804
:10261400232000BF0C37BD4680BC704700E100E0BA
:1026240080B483B000AF03463960FB7197F907307B
:10263400002B0ADB3B68DAB20C4997F90730120128
:10264400D2B20B4483F800230AE03B68DAB20849AB
:10265400FB7903F00F03043B1201D2B20B441A7648
:1026640000BF0C37BD4680BC704700BF00E100E0EE
:1026740000ED00E080B489B000AFF860B9607A6022
:10268400FB6803F00703FB61FB69C3F10703042B39
:1026940028BF0423BB61FB690433062B02D9FB6901
:1026A400033B00E000237B614FF0FF32BB6902FA79
:1026B40003F3DA43BB681A407B699A404FF0FF3159
:1026C4007B6901FA03F3D9437B680B401343184633
:1026D4002437BD4680BC704780B582B000AF7860B7
:1026E4007B68013BB3F1807F01D301230FE00A4AE9
:1026F4007B68013B53600F214FF0FF30FFF790FFE1
:10270400054B00229A60044B07221A6000231846E6
:102714000837BD4680BD00BF10E000E080B582B040
:1027240000AF78607B68072B0FD07B68062B0CD03A
:102734007B68052B09D07B68042B06D07B68032BB0
:1027440003D091210448FFF746F97868FFF71AFF90
:1027540000BF0837BD4680BDD85A000880B586B092
:1027640000AF0346B9607A60FB7300237B617B682A
:102774000F2B03D9A9210E48FFF72DF9BB680F2BA6
:1027840003D9AA210A48FFF726F9FFF71FFF78614A
:102794007A68B9687869FFF76DFF024697F90F30D8
:1027A40011461846FFF73CFF00BF1837BD4680BDF1
:1027B400D85A000880B582B000AF0346FB7197F980
:1027C4000730002B03DABD210548FFF704F997F918
:1027D40007301846FFF708FF00BF0837BD4680BD25
:1027E400D85A000880B582B000AF78607868FFF7E7
:1027F40073FF034618460837BD4680BD80B58AB0CE
:1028040000AF7860396000237B6200233B627B6801
:10281400944A93421BD07B68934A934217D07B68B7
:10282400924A934213D07B68914A93420FD07B68BB
:10283400904A93420BD07B688F4A934207D07B68BF
:102844008E4A934203D0BD218D48FFF7C4F83B68FC
:102854001B689BB2002B05D03B681B681B0C1B0438
:10286400002B03D0BE218648FFF7B5F83B685B68B0
:10287400002B00F035823B685B68012B00F030824E
:102884003B685B68112B00F02B823B685B68022B72
:1028940000F026823B685B68122B00F021823B68C3
:1028A4005B68784A934200F01B823B685B68764A17
:1028B400934200F015823B685B68744A934200F0CF
:1028C4000F823B685B68724A934200F009823B685E
:1028D4005B68704A934200F003823B685B686E4A0F
:1028E400934200F0FD813B685B68032B00F0F881A4
:1028F400BF216348FFF76FF8F2E101227B6A02FA15
:1029040003F3FB613B681B68FA691340BB61BA6956
:10291400FB699A4240F0E1817B68524A93421BD0A2
:102924007B68514A934217D07B68504A934213D034
:102934007B684F4A93420FD07B684E4A93420BD038
:102944007B684D4A934207D07B684C4A934203D03C
:10295400CD214B48FFF73FF83B685B684E4A9342F2
:1029640000F0C6804C4A934200F2EC80474A9342FE
:1029740000F0BE80454A934200F2E480454A934207
:1029840000F0B680434A934200F2DC803E4A934210
:1029940000F0AE803C4A934200F2D4803C4A934219
:1029A40000F0A6803A4A934200F2CC80122B2BD836
:1029B400122B00F2C78001A252F823F0F52A000876
:1029C400152A0008A12A0008432B0008492B0008F7
:1029D400492B0008492B0008492B0008492B000803
:1029E400492B0008492B0008492B0008492B0008F3
:1029F400492B0008492B0008492B0008492B0008E3
:102A04003D2A0008CB2A00081E4A934270D099E060
:102A14003B68DB68022B0BD03B68DB68012B07D0DB
:102A24003B68DB68032B03D0D5211548FEF7D3FFA1
:102A34003B68DB683B6286E03B68DB68022B0BD0BB
:102A44003B68DB68012B07D03B68DB68032B03D0B2
:102A5400DC210B48FEF7BFFF3B68DB6804333B62B5
:102A640071E000BF00080140000C0140001001406B
:102A74000014014000180140001C014000200140E6
:102A8400145B000800001110000021100000311038
:102A94000000121000002210000032103B68DB68B6
:102AA400022B0BD03B68DB68012B07D03B68DB684B
:102AB400032B03D0E3219148FEF78DFF3B68DB68CD
:102AC40008333B623FE03B68DB68022B0BD03B687A
:102AD400DB68012B07D03B68DB68032B03D0EA21BA
:102AE4008648FEF778FF3B68DB680C333B622AE0DC
:102AF4003B689B68002B0BD03B689B68012B07D07D
:102B04003B689B68022B03D0F7217C48FEF763FFE8
:102B14003B689B68002B02D104233B6213E03B68B3
:102B24009B68012B05D108233B627B68FA691A6113
:102B340009E008233B627B68FA695A6103E00023D9
:102B44003B6200E000BFBB69FF2B01D87B6801E05A
:102B54007B6804337B61BB69FF2B02D87B6A9B00D3
:102B640002E07B6A083B9B003B617B691A680F218A
:102B74003B6901FA03F3DB431A40396A3B6901FA02
:102B840003F31A437B691A603B685B6803F0805364
:102B9400002B00F0A2805A4B9B69594A43F0010371
:102BA4009361574B9B6903F00103BB60BB68554AB3
:102BB4007B6A9B08023352F82330FB607B6A03F084
:102BC40003039B000F2202FA03F3DB43FA6813406A
:102BD400FB607B684C4A93421FD07B684B4A93420C
:102BE40019D07B684A4A934213D07B68494A93427E
:102BF4000DD07B68484A934207D07B68474A93428A
:102C040001D105230AE0062308E0042306E0032398
:102C140004E0022302E0012300E000237A6A02F0C8
:102C2400030292009340FA681343FB6035497B6AC0
:102C34009B080233FA6841F823203B685B6803F47D
:102C44008013002B06D0364B9A683549BB69134371
:102C54008B6006E0324B9A68BB69DB433049134012
:102C64008B603B685B6803F40013002B06D02C4B8D
:102C7400DA682B49BB691343CB6006E0284BDA685A
:102C8400BB69DB4326491340CB603B685B6803F4B4
:102C94000033002B06D0224B5A682149BB691343E9
:102CA4004B6006E01E4B5A68BB69DB431C4913406A
:102CB4004B603B685B6803F48033002B06D0184BF1
:102CC4001A681749BB6913430B6006E0144B1A6872
:102CD400BB69DB43124913400B607B6A01337B629F
:102CE4003B681A687B6A22FA03F3002B7FF405AE73
:102CF40000BF00BF2837BD4680BD00BF145B00087D
:102D0400001002400000014000080140000C014096
:102D1400001001400014014000180140001C014053
:102D24000004014080B584B000AF78600B467B801E
:102D34007B88002B04D07B881B0C1B04002B04D045
:102D44004FF4DA710948FEF746FE7B689A687B887F
:102D54001340002B02D00123FB7301E00023FB731B
:102D6400FB7B18461037BD4680BD00BF145B0008CE
:102D740080B586B000AF78607B68002B01D1012359
:102D84005AE37B681B68002B1CD07B681B6803F02C
:102D94000103002B16D17B681B6803F00203002B90
:102DA40010D17B681B6803F00803002B0AD17B68F1
:102DB4001B6803F00403002B04D140F265118F4813
:102DC400FEF709FE7B681B6803F00103002B00F08B
:102DD4009A807B685B68002B0ED07B685B68B3F5D8
:102DE400803F09D07B685B68B3F5A02F04D040F224
:102DF4006B118248FEF7EFFD814B5B6803F00C0317
:102E0400042B0CD07E4B5B6803F00C03082B12D10F
:102E14007B4B5B6803F48033B3F5803F0BD1784B75
:102E24001B6803F40033002B6CD07B685B68002BB9
:102E340068D1012300E37B685B68B3F5803F06D16A
:102E44006F4B1B686E4A43F4803313602EE07B683B
:102E54005B68002B0CD16A4B1B68694A23F48033EE
:102E64001360674B1B68664A23F4802313601DE0DC
:102E74007B685B68B3F5A02F0CD1614B1B68604A7B
:102E840043F4802313605E4B1B685D4A43F4803334
:102E940013600BE05A4B1B68594A23F480331360C8
:102EA400574B1B68564A23F4802313607B685B6886
:102EB400002B13D0FFF75CFB386108E0FFF758FBE9
:102EC40002463B69D31A642B01D90323B4E24C4B69
:102ED4001B6803F40033002BF0D014E0FFF748FB29
:102EE400386108E0FFF744FB02463B69D31A642BC0
:102EF40001D90323A0E2424B1B6803F40033002BE7
:102F0400F0D100E000BF7B681B6803F00203002BD4
:102F140000F080807B681B69002B08D07B681B69EC
:102F2400012B04D040F29F113448FEF754FD7B6816
:102F34005B691F2B04D94FF4D0713048FEF74BFD69
:102F44002F4B5B6803F00C03002B0BD02C4B5B68FE
:102F540003F00C03082B1CD1294B5B6803F480336A
:102F6400002B16D1264B1B6803F00203002B05D05F
:102F74007B681B69012B01D001235DE2204B1B6898
:102F840023F0F8027B685B69DB001D4913430B6087
:102F940040E07B681B69002B20D01A4B01221A6089
:102FA400FFF7E6FA386108E0FFF7E2FA02463B6908
:102FB400D31A022B01D903233EE2114B1B6803F001
:102FC4000203002BF0D00E4B1B6823F0F8027B6841
:102FD4005B69DB000A4913430B601BE0094B0022C9
:102FE4001A60FFF7C5FA38610EE0FFF7C1FA02462E
:102FF4003B69D31A022B07D903231DE2505B000857
:1030040000100240000042427D4B1B6803F00203A3
:10301400002BEAD17B681B6803F00803002B40D027
:103024007B689B69002B08D07B689B69012B04D0CB
:103034004FF4F0717348FEF7CEFC7B689B69002B5C
:1030440019D0714B01221A60FFF792FA386108E037
:10305400FFF78EFA02463B69D31A022B01D90323E8
:10306400EAE1674B5B6A03F00203002BF0D0012016
:1030740000F0D0FB15E0644B00221A60FFF778FAE9
:10308400386108E0FFF774FA02463B69D31A022B51
:1030940001D90323D0E15A4B5B6A03F00203002BEE
:1030A400F0D17B681B6803F00403002B00F0BF80A1
:1030B4000023FB757B68DB68002B0CD07B68DB6826
:1030C400012B08D07B68DB68052B04D040F20F216C
:1030D4004C48FEF780FC4A4BDB6903F08053002B1D
:1030E4000DD1474BDB69464A43F08053D361444BCF
:1030F400DB6903F08053BB60BB680123FB75434B62
:103104001B6803F48073002B18D1404B1B683F4AA3
:1031140043F480731360FFF72BFA386108E0FFF77C
:1031240027FA02463B69D31A642B01D9032383E1AE
:10313400364B1B6803F48073002BF0D07B68DB688C
:10314400012B06D12E4B1B6A2D4A43F00103136257
:103154002DE07B68DB68002B0CD1294B1B6A284AC5
:1031640023F001031362264B1B6A254A23F0040350
:1031740013621CE07B68DB68052B0CD1204B1B6AB7
:103184001F4A43F0040313621D4B1B6A1C4A43F09D
:10319400010313620BE01A4B1B6A194A23F0010363
:1031A4001362174B1B6A164A23F0040313627B68ED
:1031B400DB68002B15D0FFF7DBF938610AE0FFF775
:1031C400D7F902463B69D31A41F28832934201D9B6
:1031D400032331E10A4B1B6A03F00203002BEED0F8
:1031E4001CE0FFF7C5F9386112E0FFF7C1F90246A8
:1031F4003B69D31A41F28832934209D903231BE174
:1032040000100240505B00088004424200700040FD
:103214008B4B1B6A03F00203002BE6D1FB7D012BD1
:1032240005D1874BDB69864A23F08053D3617B68E1
:10323400DB69002B0CD07B68DB69012B08D07B6831
:10324400DB69022B04D040F2AD217E48FEF7C3FBBC
:103254007B68DB69002B00F0EE80794B5B6803F040
:103264000C03082B00F0CE807B68DB69022B40F056
:10327400B2807B681B6A002B09D07B681B6AB3F59C
:10328400803F04D040F2B6216E48FEF7A4FB7B6871
:103294005B6A002B4AD07B685B6AB3F5802F45D00C
:1032A4007B685B6AB3F5002F40D07B685B6AB3F53B
:1032B400402F3BD07B685B6AB3F5801F36D07B68B8
:1032C4005B6AB3F5A01F31D07B685B6AB3F5C01F9E
:1032D4002CD07B685B6AB3F5E01F27D07B685B6A00
:1032E400B3F5001F22D07B685B6AB3F5101F1DD0B5
:1032F4007B685B6AB3F5201F18D07B685B6AB3F503
:10330400301F13D07B685B6AB3F5401F0ED07B6817
:103314005B6AB3F5501F09D07B685B6AB3F5601F25
:1033240004D040F2B7214748FEF755FB464B002234
:103334001A60FFF71DF9386108E0FFF719F9024632
:103344003B69D31A022B01D9032375E03C4B1B685C
:1033540003F00073002BF0D17B681B6AB3F5803F48
:1033640016D17B689B68002B09D07B689B68B3F5FA
:10337400003F04D040F2CD213248FEF72CFB304B05
:103384005B6823F400327B689B682D4913434B60D0
:103394002B4B5B6823F474127B68196A7B685B6A45
:1033A4000B43274913434B60274B01221A60FFF755
:1033B400DFF8386108E0FFF7DBF802463B69D31A0F
:1033C400022B01D9032337E01D4B1B6803F0007364
:1033D400002BF0D02FE01C4B00221A60FFF7C8F836
:1033E400386108E0FFF7C4F802463B69D31A022BA0
:1033F40001D9032320E0124B1B6803F00073002B58
:10340400F0D118E07B68DB69012B01D1012313E0C3
:103414000B4B5B68FB60FB6803F480327B681B6AC0
:103424009A4206D1FB6803F470127B685B6A9A4285
:1034340001D0012300E0002318461837BD4680BDA3
:1034440000100240505B00086000424280B584B026
:1034540000AF786039607B68002B01D1012376E1ED
:103464007B681B6803F00103002B16D17B681B6883
:1034740003F00203002B10D17B681B6803F00403E4
:10348400002B0AD17B681B6803F00803002B04D1CE
:1034940040F236317448FEF79EFA3B68002B0AD09E
:1034A4003B68012B07D03B68022B04D040F2373134
:1034B4006D48FEF790FA6D4B1B6803F007033A68FA
:1034C4009A4210D9694B1B6823F0070267493B688D
:1034D40013430B60654B1B6803F007033A689A4279
:1034E40001D0012333E17B681B6803F00203002B46
:1034F40049D07B681B6803F00403002B05D05C4BA8
:103504005B685B4A43F4E06353607B681B6803F0C9
:103514000803002B05D0564B5B68554A43F46053AF
:1035240053607B689B68002B24D07B689B68802B4E
:1035340020D07B689B68902B1CD07B689B68A02B59
:1035440018D07B689B68B02B14D07B689B68C02B19
:1035540010D07B689B68D02B0CD07B689B68E02BD9
:1035640008D07B689B68F02B04D040F25D313E4864
:10357400FEF731FA3E4B5B6823F0F0027B689B68F0
:103584003B4913434B607B681B6803F00103002B2A
:1035940051D07B685B68002B0CD07B685B68012B87
:1035A40008D07B685B68022B04D04FF459712E4815
:1035B400FEF711FA7B685B68012B07D12C4B1B6863
:1035C40003F40033002B15D10123C0E07B685B6852
:1035D400022B07D1264B1B6803F00073002B09D183
:1035E4000123B4E0224B1B6803F00203002B01D13A
:1035F4000123ACE01E4B5B6823F003027B685B682D
:103604001B4913434B60FEF7B3FFF8600AE0FEF773
:10361400AFFF0246FB68D31A41F28832934201D9C4
:10362400032394E0124B5B6803F00C027B685B6835
:103634009B009A42EBD10D4B1B6803F007033A68D9
:103644009A4217D2094B1B6823F0070207493B68CB
:1036540013430B60054B1B6803F007033A689A4257
:1036640008D0012373E000BF505B00080020024033
:10367400001002407B681B6803F00403002B25D074
:103684007B68DB68002B18D07B68DB68B3F5806F40
:1036940013D07B68DB68B3F5A06F0ED07B68DB6862
:1036A400B3F5C06F09D07B68DB68B3F5E06F04D075
:1036B40040F2A2312848FEF78EF9284B5B6823F4C8
:1036C400E0627B68DB68254913434B607B681B68B9
:1036D40003F00803002B26D07B681B69002B18D04D
:1036E4007B681B69B3F5806F13D07B681B69B3F5E6
:1036F400A06F0ED07B681B69B3F5C06F09D07B68DF
:103704001B69B3F5E06F04D040F2A9311248FEF70B
:1037140062F9124B5B6823F460527B681B69DB001F
:103724000E4913434B6000F021F802460B4B5B68D3
:103734001B0903F00F030A49CB5C22FA03F3094A7D
:103744001360094B1B681846FEF7D0FE0023184689
:103754001037BD4680BD00BF505B0008001002401A
:10376400FC5B00081C0000202000002080B487B00F
:1037740000AF0023FB600023BB6000237B610023B8
:103784007B6000233B611E4B5B68FB60FB6803F0BE
:103794000C03042B02D0082B03D027E0194B3B6108
:1037A40027E0FB689B0C03F00F03174AD35C7B6094
:1037B400FB6803F48033002B10D0114B5B685B0C67
:1037C40003F00103114AD35CBB607B680D4A03FB21
:1037D40002F2BB68B2FBF3F37B6104E07B680C4A42
:1037E40002FB03F37B617B693B6102E0054B3B61B8
:1037F40000BF3B6918461C37BD4680BC704700BFFC
:103804000010024000127A000C5C00081C5C0008E6
:1038140000093D0080B485B000AF78600A4B1B6896
:103824000A4AA2FB03235B0A7A6802FB03F3FB60E8
:1038340000BFFB685A1EFA60002BF9D100BF00BF1D
:103844001437BD4680BC70471C000020D34D621065
:1038540080B582B000AF78607B68002B01D1012372
:10386400B5E07B681B685C4A934227D07B681B6881
:103874005A4A934222D07B681B68B3F1804F1DD013
:103884007B681B68564A934218D07B681B68554A6C
:10389400934213D07B681B68534A93420ED07B68D3
:1038A4001B68524A934209D07B681B68504A934272
:1038B40004D040F213114F48FEF78DF87B689B68E3
:1038C400002B14D07B689B68102B10D07B689B68FE
:1038D400202B0CD07B689B68402B08D07B689B68AE
:1038E400602B04D04FF48A714248FEF774F87B6869
:1038F4001B69002B0ED07B681B69B3F5807F09D050
:103904007B681B69B3F5007F04D040F21511394878
:10391400FEF761F87B68DB68002B04D07B68DB680A
:10392400B3F5803F04D34FF48B713248FEF753F85C
:103934007B689B69002B08D07B689B69802B04D033
:1039440040F217112B48FEF746F87B6893F83D3098
:10395400DBB2002B06D17B68002283F83C20786818
:10396400FEF7BEFB7B68022283F83D207B681A6861
:103974007B6804331946104601F01CFB7B68012266
:1039840083F846207B68012283F83E207B6801226D
:1039940083F83F207B68012283F840207B68012262
:1039A40083F841207B68012283F842207B6801224E
:1039B40083F843207B68012283F844207B6801223A
:1039C40083F845207B68012283F83D2000231846B4
:1039D4000837BD4680BD00BF002C014000340140C3
:1039E4000004004000080040000C004000100040AB
:1039F40000140040885B000880B584B000AF786094
:103A04007B681B683D4A934227D07B681B683C4A0D
:103A1400934222D07B681B68B3F1804F1DD07B6832
:103A24001B68384A934218D07B681B68364A934215
:103A340013D07B681B68354A93420ED07B681B68A1
:103A4400334A934209D07B681B68324A934204D0BC
:103A54004FF4E8713048FDF7BEFF7B6893F83D30C2
:103A6400DBB2012B01D0012344E07B68022283F8FE
:103A74003D207B681B68DA687B681B6842F00102A2
:103A8400DA607B681B681D4A934218D07B681B6808
:103A94001B4A934213D07B681B68B3F1804F0ED04E
:103AA4007B681B68174A934209D07B681B68164AD7
:103AB400934204D07B681B68144A934211D17B68FB
:103AC4001B689B6803F00703FB60FB68062B10D0A0
:103AD4007B681B681A687B681B6842F001021A60E5
:103AE40007E07B681B681A687B681B6842F0010268
:103AF4001A60002318461037BD4680BD002C0140D3
:103B0400003401400004004000080040000C004064
:103B14000010004000140040885B000880B582B0AB
:103B240000AF78607B68002B01D10123B5E07B688E
:103B34001B685C4A934227D07B681B685A4A9342AD
:103B440022D07B681B68B3F1804F1DD07B681B6853
:103B5400564A934218D07B681B68554A934213D047
:103B64007B681B68534A93420ED07B681B68524A99
:103B7400934209D07B681B68504A934204D040F2B8
:103B84002C514F48FDF727FF7B689B68002B14D00E
:103B94007B689B68102B10D07B689B68202B0CD013
:103BA4007B689B68402B08D07B689B68602B04D0A3
:103BB40040F22D514248FDF70EFF7B681B69002B34
:103BC4000ED07B681B69B3F5807F09D07B681B69C5
:103BD400B3F5007F04D040F22E513948FDF7FBFEC7
:103BE4007B68DB68002B04D07B68DB68B3F5803F1F
:103BF40004D340F22F513248FDF7EDFE7B689B69F8
:103C0400002B08D07B689B69802B04D04FF4A661FD
:103C14002B48FDF7E0FE7B6893F83D30DBB2002BC8
:103C240006D17B68002283F83C20786800F04AF8CB
:103C34007B68022283F83D207B681A687B68043322
:103C44001946104601F0B6F97B68012283F8462034
:103C54007B68012283F83E207B68012283F83F20A1
:103C64007B68012283F840207B68012283F841208D
:103C74007B68012283F842207B68012283F8432079
:103C84007B68012283F844207B68012283F8452065
:103C94007B68012283F83D20002318460837BD467F
:103CA40080BD00BF002C01400034014000040040EE
:103CB40000080040000C00400010004000140040C8
:103CC400885B000880B483B000AF786000BF0C3715
:103CD400BD4680BC7047000080B584B000AF7860FA
:103CE40039607B681B688A4A93420BD13B68002B7E
:103CF40062D03B68042B5FD03B68082B5CD03B68E8
:103D04000C2B59D07B681B68824A93420BD13B68C9
:103D1400002B51D03B68042B4ED03B68082B4BD072
:103D24003B680C2B48D07B681B68B3F1804F0BD1E8
:103D34003B68002B40D03B68042B3DD03B68082BEC
:103D44003AD03B680C2B37D07B681B68724A93428D
:103D54000BD13B68002B2FD03B68042B2CD03B6845
:103D6400082B29D03B680C2B26D07B681B686B4A38
:103D740093420BD13B68002B1ED03B68042B1BD015
:103D84003B68082B18D03B680C2B15D07B681B684C
:103D9400634A93420BD13B68002B0DD03B68042B44
:103DA4000AD03B68082B07D03B680C2B04D040F2A8
:103DB400B3515C48FDF70FFE3B68002B09D17B68CB
:103DC40093F83E30DBB2012B14BF01230023DBB296
:103DD40022E03B68042B09D17B6893F83F30DBB2C7
:103DE400012B14BF01230023DBB215E03B68082B31
:103DF40009D17B6893F84030DBB2012B14BF012357
:103E04000023DBB208E07B6893F84130DBB2012B7E
:103E140014BF01230023DBB2002B01D0012372E085
:103E24003B68002B04D17B68022283F83E2013E018
:103E34003B68042B04D17B68022283F83F200BE00B
:103E44003B68082B04D17B68022283F8402003E0FE
:103E54007B68022283F841207B681B680122396851
:103E6400184601F0F1FB7B681B68294A934204D091
:103E74007B681B68274A934201D1012300E0002399
:103E8400002B07D07B681B685A6C7B681B6842F464
:103E940000425A647B681B681D4A934218D07B68B1
:103EA4001B681C4A934213D07B681B68B3F1804F94
:103EB4000ED07B681B68184A934209D07B681B6844
:103EC400164A934204D07B681B68154A934211D169
:103ED4007B681B689B6803F00703FB60FB68062B89
:103EE40010D07B681B681A687B681B6842F001026B
:103EF4001A6007E07B681B681A687B681B6842F0DD
:103F040001021A60002318461037BD4680BD00BF69
:103F1400002C01400034014000040040000800402F
:103F2400000C0040885B000880B586B000AF786064
:103F340039607B68002B01D1012394E17B681B6805
:103F44007F4A93421DD07B681B687E4A934218D0F7
:103F54007B681B68B3F1804F13D07B681B687A4A77
:103F640093420ED07B681B68784A934209D07B68E1
:103F74001B68774A934204D040F6D8317548FDF760
:103F84002AFD7B689B68002B14D07B689B68102BF0
:103F940010D07B689B68202B0CD07B689B68402BDF
:103FA40008D07B689B68602B04D040F6D9316948FF
:103FB400FDF711FD7B681B69002B0ED07B681B6924
:103FC400B3F5807F09D07B681B69B3F5007F04D00B
:103FD40040F6DA315F48FDF7FEFC7B689B69002BF5
:103FE40008D07B689B69802B04D040F6DB315948AC
:103FF400FDF7F1FC3B681B68012B0CD03B681B6888
:10400400022B08D03B681B68032B04D040F6DC313C
:104014005048FDF7E0FC3B689B68012B0CD03B68E3
:104024009B68022B08D03B689B68032B04D040F6A6
:10403400DD314848FDF7CFFC3B689B69012B0CD070
:104044003B689B69022B08D03B689B69032B04D017
:1040540040F6DE313F48FDF7BEFC3B685B68002B51
:1040640008D03B685B68022B04D040F6DF31394846
:10407400FDF7B1FC3B685B69002B08D03B685B69CA
:10408400022B04D04FF43E613248FDF7A4FC3B6898
:10409400DB68002B10D03B68DB68042B0CD03B683A
:1040A400DB68082B08D03B68DB680C2B04D040F697
:1040B400E1312848FDF78FFC3B68DB69002B10D009
:1040C4003B68DB69042B0CD03B68DB69082B08D008
:1040D4003B68DB690C2B04D040F6E2311D48FDF748
:1040E4007AFC3B681B690F2B04D940F6E33119486D
:1040F400FDF771FC3B681B6A0F2B04D940F6E431D1
:104104001448FDF768FC7B68DB68002B04D07B68EF
:10411400DB68B3F5803F04D340F6E5310D48FDF785
:104124005AFC7B6893F83D30DBB2002B14D17B68DA
:10413400002283F83C207868FEF720F80CE000BFEA
:10414400002C0140003401400004004000080040FD
:10415400000C0040885B00087B68022283F83D2045
:104164007B681B689B687A68126823F4804323F099
:10417400070393607B681A687B680433194610460A
:1041840000F018FF7B681B689B687B617B681B6879
:104194009B693B617B681B681B6AFB603B681B680F
:1041A4007A6913437B613B6923F4407323F003036F
:1041B4003B613B689A683B689B691B0213433A69FD
:1041C40013433B613B6923F4406323F00C033B61DD
:1041D4003B6923F4704323F0F0033B613B68DA68E6
:1041E4003B68DB691B0213433A6913433B613B6839
:1041F4001B691A013B681B6A1B0313433A69134387
:104204003B61FB6823F02203FB603B685A683B6810
:104214005B691B011343FA681343FB607B681B68EB
:104224007A699A607B681B683A699A617B681B6843
:10423400FA681A627B68012283F846207B680122AF
:1042440083F83E207B68012283F83F207B680122AB
:1042540083F842207B68012283F843207B68012293
:1042640083F83D20002318461837BD4680BD00BFA3
:1042740080B584B000AF786039607B6893F83E30D5
:10428400FB737B6893F83F30BB737B6893F84230D1
:104294007B737B6893F843303B737B681B684D4AA0
:1042A40093421DD07B681B684B4A934218D07B68AD
:1042B4001B68B3F1804F13D07B681B68474A934255
:1042C4000ED07B681B68464A934209D07B681B6802
:1042D400444A934204D040F695414348FDF77BFBA2
:1042E4003B68002B10D1FB7B012B02D17B7B012B84
:1042F40001D0012369E07B68022283F83E207B68B9
:10430400022283F8422031E03B68042B10D1BB7BAE
:10431400012B02D13B7B012B01D0012355E07B68AB
:10432400022283F83F207B68022283F843201DE0A9
:10433400FB7B012B08D1BB7B012B05D17B7B012BA4
:1043440002D13B7B012B01D001233EE07B6802229A
:1043540083F83E207B68022283F83F207B68022298
:1043640083F842207B68022283F843203B68002BB9
:1043740003D03B68042B08D00FE07B681B68012244
:104384000021184601F060F916E07B681B680122E1
:104394000421184601F058F90EE07B681B680122DD
:1043A4000021184601F050F97B681B6801220421A2
:1043B400184601F049F900BF7B681B681A687B68DE
:1043C4001B6842F001021A60002318461037BD46EC
:1043D40080BD00BF002C01400034014000040040B7
:1043E40000080040000C0040885B000880B582B0E3
:1043F40000AF78607B681B681B6903F00203022B23
:1044040022D17B681B68DB6803F00203022B1BD1FB
:104414007B681B686FF002021A617B6801221A77BD
:104424007B681B689B6903F00303002B03D0786847
:1044340000F0A5FD05E0786800F098FD786800F0CC
:10444400A7FD7B6800221A777B681B681B6903F051
:104454000403042B22D17B681B68DB6803F004038C
:10446400042B1BD17B681B686FF004021A617B6804
:1044740002221A777B681B689B6903F44073002B44
:1044840003D0786800F07BFD05E0786800F06EFDED
:10449400786800F07DFD7B6800221A777B681B68D2
:1044A4001B6903F00803082B22D17B681B68DB68B7
:1044B40003F00803082B1BD17B681B686FF008020C
:1044C4001A617B6804221A777B681B68DB6903F036
:1044D4000303002B03D0786800F051FD05E07868F1
:1044E40000F044FD786800F053FD7B6800221A77E1
:1044F4007B681B681B6903F01003102B22D17B68B7
:104504001B68DB6803F01003102B1BD17B681B684E
:104514006FF010021A617B6808221A777B681B68A7
:10452400DB6903F44073002B03D0786800F027FDA7
:1045340005E0786800F01AFD786800F029FD7B68D2
:1045440000221A777B681B681B6903F00103012BA7
:104554000ED17B681B68DB6803F00103012B07D1D4
:104564007B681B686FF001021A617868FDF738F9FF
:104574007B681B681B6903F08003802B0ED17B686A
:104584001B68DB6803F08003802B07D17B681B6802
:104594006FF080021A61786801F05BFA7B681B682F
:1045A4001B6903F04003402B0ED17B681B68DB685A
:1045B40003F04003402B07D17B681B686FF0400277
:1045C4001A61786800F0EDFC7B681B681B6903F0D6
:1045D4002003202B0ED17B681B68DB6803F02003CB
:1045E400202B07D17B681B686FF020021A61786862
:1045F40001F026FA00BF0837BD4680BD80B586B0FD
:1046040000AFF860B9607A600023FB757B68002B0B
:1046140010D07B68042B0DD07B68082B0AD07B68F4
:104624000C2B07D07B683C2B04D041F27E019048D0
:10463400FDF7D1F9BB681B68602B08D0BB681B6809
:10464400702B04D041F27F018948FDF7C4F9BB689F
:104654009B68002B08D0BB689B68022B04D04FF4E6
:1046640084518348FDF7B7F9BB681B69002B08D058
:10467400BB681B69042B04D041F281017C48FDF71F
:10468400AAF9FB6893F83C30012B01D1022347E1DE
:10469400FB68012283F83C207B680C2B00F23881F4
:1046A40001A252F823F000BFE146000815490008B2
:1046B400154900081549000867470008154900080E
:1046C4001549000815490008EF4700081549000876
:1046D40015490008154900088D480008FB681B6847
:1046E400644A93421DD0FB681B68634A934218D006
:1046F400FB681B68B3F1804F13D0FB681B685F4AEB
:1047040093420ED0FB681B685D4A934209D0FB6854
:104714001B685C4A934204D041F28B015448FDF774
:104724005AF9FB681B68B968184600F0BDFCFB68C1
:104734001B689A69FB681B6842F008029A61FB686F
:104744001B689A69FB681B6822F004029A61FB6883
:104754001B689969BB681A69FB681B680A439A61FC
:10476400D9E0FB681B68434A93421DD0FB681B6871
:10477400414A934218D0FB681B68B3F1804F13D0B1
:10478400FB681B683D4A93420ED0FB681B683C4A99
:10479400934209D0FB681B683A4A934204D041F221
:1047A4009C013348FDF717F9FB681B68B968184684
:1047B40000F014FDFB681B689A69FB681B6842F4EF
:1047C40000629A61FB681B689A69FB681B6822F4A3
:1047D40080629A61FB681B689969BB681B691A024D
:1047E400FB681B680A439A6195E0FB681B68214AD1
:1047F40093421DD0FB681B681F4A934218D0FB6884
:104804001B68B3F1804F13D0FB681B681B4A9342AB
:104814000ED0FB681B681A4A934209D0FB681B68D8
:10482400184A934204D041F2AD011148FDF7D3F880
:10483400FB681B68B968184600F06EFDFB681B68CE
:10484400DA69FB681B6842F00802DA61FB681B68DE
:10485400DA69FB681B6822F00402DA61FB681B68F2
:10486400D969BB681A69FB681B680A43DA6152E0BC
:10487400885B0008002C0140003401400004004023
:1048840000080040000C0040FB681B68264A934265
:104894001DD0FB681B68254A934218D0FB681B682F
:1048A400B3F1804F13D0FB681B68214A93420ED0AA
:1048B400FB681B681F4A934209D0FB681B681E4AA9
:1048C400934204D041F2BE011C48FDF784F8FB6812
:1048D4001B68B968184600F0BDFDFB681B68DA69FF
:1048E400FB681B6842F40062DA61FB681B68DA69E2
:1048F400FB681B6822F48062DA61FB681B68D96973
:10490400BB681B691A02FB681B680A43DA6102E090
:104914000123FB7500BFFB68002283F83C20FB7D6C
:1049240018461837BD4680BD002C014000340140B4
:104934000004004000080040000C0040885B0008B0
:1049440080B584B000AF786039600023FB737B6866
:1049540093F83C30012B01D10223F6E27B6801225B
:1049640083F83C207B68022283F83D203B681B6867
:10497400B3F5805F29D03B681B68702B25D03B685A
:104984001B68B3F5005F20D03B681B68402B1CD02C
:104994003B681B68502B18D03B681B68602B14D0F5
:1049A4003B681B68002B10D03B681B68102B0CD095
:1049B4003B681B68202B08D03B681B68302B04D055
:1049C40041F2BE417C48FDF706F87B681B689B6892
:1049D400BB60BB6823F07703BB60BB6823F47F43F1
:1049E400BB607B681B68BA689A603B681B68B3F558
:1049F400005F00F0F180B3F5005F00F29982B3F537
:104A0400805F2DD0B3F5805F00F29282702B5DD071
:104A1400702B00F28D82602B00F0A581602B00F2D8
:104A24008782502B00F04981502B00F28182402B69
:104A340000F0FC81402B00F27B82302B00F04C8292
:104A4400302B00F27582202B00F04682202B00F2DE
:104A54006F82002B00F04082102B00F03D8267E251
:104A64007B681B68554A934200F065827B681B682B
:104A7400534A934200F05F827B681B68B3F1804F16
:104A840000F059827B681B684E4A934200F05382BF
:104A94007B681B684C4A934200F04D827B681B681C
:104AA4004A4A934200F047827B681B68484A934213
:104AB40000F041827B681B68464A934200F03B82C7
:104AC40041F2CA413C48FCF786FF34E27B681B682C
:104AD4003A4A93421DD07B681B68394A934218D0E6
:104AE4007B681B68B3F1804F13D07B681B68354A21
:104AF40093420ED07B681B68334A934209D07B688B
:104B04001B68324A934204D041F2D1412A48FCF74F
:104B140062FF3B689B68002B13D03B689B68B3F52E
:104B2400805F0ED03B689B68B3F5005F09D03B689B
:104B34009B68B3F5405F04D041F2D4411E48FCF7B2
:104B44004AFF3B685B68B3F5004F14D03B685B6871
:104B5400002B10D03B685B68002B0CD03B685B6873
:104B6400022B08D03B685B680A2B04D041F2D54184
:104B74001148FCF730FF3B68DB680F2B04D941F286
:104B8400D6410D48FCF727FF7B6818683B68996895
:104B94003B685A683B68DB6800F037FD7B681B683C
:104BA4009B68BB60BB6843F07703BB607B681B6892
:104BB400BA689A60C0E100BF885B0008002C01401D
:104BC400003401400004004000080040000C004094
:104BD40000100040001400407B681B688D4A93421B
:104BE4001DD07B681B688C4A934218D07B681B6875
:104BF400B3F1804F13D07B681B68884A93420ED070
:104C04007B681B68864A934209D07B681B68854A87
:104C1400934204D041F2E9418348FCF7DCFE3B684F
:104C24009B68002B13D03B689B68B3F5805F0ED064
:104C34003B689B68B3F5005F09D03B689B68B3F59C
:104C4400405F04D041F2EC417748FCF7C4FE3B6876
:104C54005B68B3F5004F14D03B685B68002B10D041
:104C64003B685B68002B0CD03B685B68022B08D068
:104C74003B685B680A2B04D041F2ED416A48FCF7BB
:104C8400AAFE3B68DB680F2B04D941F2EE4166486B
:104C9400FCF7A1FE7B6818683B6899683B685A6812
:104CA4003B68DB6800F0B1FC7B681B689A687B6832
:104CB4001B6842F480429A603EE17B681B68554A57
:104CC40093421DD07B681B68534A934218D07B687B
:104CD4001B68B3F1804F13D07B681B684F4A934223
:104CE4000ED07B681B684E4A934209D07B681B68D0
:104CF4004C4A934204D041F2FD414B48FCF76BFE11
:104D04003B685B68B3F5004F14D03B685B68002BCD
:104D140010D03B685B68002B0CD03B685B68022BAF
:104D240008D03B685B680A2B04D04FF4A8513E4876
:104D3400FCF751FE3B68DB680F2B04D941F20151AB
:104D44003948FCF748FE7B6818683B6859683B683B
:104D5400DB681A4600F0E2FB7B681B6850211846AA
:104D640000F039FCE8E07B681B682A4A93421DD0B6
:104D74007B681B68284A934218D07B681B68B3F190
:104D8400804F13D07B681B68244A93420ED07B6803
:104D94001B68234A934209D07B681B68214A9342CB
:104DA40004D041F20D512048FCF715FE3B685B68C6
:104DB400B3F5004F14D03B685B68002B10D03B6800
:104DC4005B68002B0CD03B685B68022B08D03B6807
:104DD4005B680A2B04D041F210511348FCF7FBFD29
:104DE4003B68DB680F2B04D941F211510E48FCF7E4
:104DF400F2FD7B6818683B6859683B68DB681A46B3
:104E040000F0BAFB7B681B686021184600F0E3FBE6
:104E140092E000BF002C0140003401400004004037
:104E240000080040000C0040885B00087B681B6899
:104E3400484A93421DD07B681B68474A934218D066
:104E44007B681B68B3F1804F13D07B681B68434AAF
:104E540093420ED07B681B68414A934209D07B6819
:104E64001B68404A934204D041F21D513E48FCF76E
:104E7400B2FD3B685B68B3F5004F14D03B685B68D8
:104E8400002B10D03B685B68002B0CD03B685B6840
:104E9400022B08D03B685B680A2B04D04FF4A9515D
:104EA4003148FCF798FD3B68DB680F2B04D941F2CD
:104EB40021512D48FCF78FFD7B6818683B685968C1
:104EC4003B68DB681A4600F029FB7B681B684021BD
:104ED400184600F080FB2FE07B681B681D4A934254
:104EE4001DD07B681B681C4A934218D07B681B68E2
:104EF400B3F1804F13D07B681B68184A93420ED0DD
:104F04007B681B68164A934209D07B681B68154A64
:104F1400934204D041F230511348FCF75CFD7B68A6
:104F24001A683B681B681946104600F054FB03E0FE
:104F34000123FB7300E000BF7B68012283F83D205E
:104F44007B68002283F83C20FB7B18461037BD4663
:104F540080BD00BF002C014000340140000400402B
:104F640000080040000C0040885B000880B483B057
:104F740000AF786000BF0C37BD4680BC704780B47A
:104F840083B000AF786000BF0C37BD4680BC70476B
:104F940080B483B000AF786000BF0C37BD4680BCDE
:104FA400704780B483B000AF786000BF0C37BD4653
:104FB40080BC704780B485B000AF786039607B688E
:104FC4001B68FB607B68334A934213D07B68324A88
:104FD40093420FD07B68B3F1804F0BD07B682F4A8C
:104FE400934207D07B682E4A934203D07B682D4AB4
:104FF400934208D1FB6823F07003FB603B685B6855
:10500400FA681343FB607B68224A934213D07B689F
:10501400214A93420FD07B68B3F1804F0BD07B6859
:105024001E4A934207D07B681D4A934203D07B6893
:105034001C4A934208D1FB6823F44073FB603B682D
:10504400DB68FA681343FB60FB6823F080023B686B
:105054005B691343FB607B68FA681A603B689A6873
:105064007B68DA623B681A687B689A627B68094AE3
:10507400934203D07B68084A934203D13B681A6980
:105084007B681A637B6801225A6100BF1437BD46EE
:1050940080BC7047002C01400034014000040040F3
:1050A40000080040000C004080B586B000AF786076
:1050B40039607B681B6A7B617B681B6A23F0010291
:1050C4007B681A627B685B683B617B689B69FB60F9
:1050D400FB6823F07003FB60FB6823F00303FB60B1
:1050E4003B681B68FA681343FB607B6923F0020387
:1050F4007B613B689B687A6913437B617B68344AB4
:10510400934203D07B68334A934219D13B68DB68EE
:10511400002B08D03B68DB68082B04D041F6C4217F
:105124002D48FCF758FC7B6923F008037B613B683E
:10513400DB687A6913437B617B6923F004037B6139
:105144007B68234A934203D07B68224A93422DD141
:105154003B689B69B3F5007F08D03B689B69002BD3
:1051640004D041F6D1211C48FCF735FC3B685B694F
:10517400B3F5807F08D03B685B69002B04D041F60F
:10518400D2211548FCF727FC3B6923F480733B616B
:105194003B6923F400733B613B685B693A691343E1
:1051A4003B613B689B693A6913433B617B683A699D
:1051B4005A607B68FA689A613B685A687B685A63EC
:1051C4007B687A691A6200BF1837BD4680BD00BF8C
:1051D400002C014000340140885B000880B586B093
:1051E40000AF786039607B681B6A7B617B681B6AEF
:1051F40023F010027B681A627B685B683B617B6802
:105204009B69FB60FB6823F4E043FB60FB6823F4C9
:105214004073FB603B681B681B02FA681343FB6026
:105224007B6923F020037B613B689B681B017A69DF
:1052340013437B617B68354A934203D07B68344ACD
:1052440093421AD13B68DB68002B08D03B68DB68CB
:10525400082B04D041F610312E48FCF7BCFB7B69C7
:1052640023F080037B613B68DB681B017A6913438D
:105274007B617B6923F040037B617B68234A934213
:1052840003D07B68224A93422FD13B689B69B3F5D4
:10529400007F08D03B689B69002B04D041F61E3187
:1052A4001C48FCF798FB3B685B69B3F5807F08D02A
:1052B4003B685B69002B04D041F61F311548FCF7AD
:1052C4008AFB3B6923F480633B613B6923F40063FD
:1052D4003B613B685B699B003A6913433B613B68F4
:1052E4009B699B003A6913433B617B683A695A6046
:1052F4007B68FA689A613B685A687B689A637B6842
:105304007A691A6200BF1837BD4680BD002C01407F
:1053140000340140885B000880B586B000AF786037
:1053240039607B681B6A7B617B681B6A23F480722B
:105334007B681A627B685B683B617B68DB69FB6046
:10534400FB6823F07003FB60FB6823F00303FB603E
:105354003B681B68FA681343FB607B6923F40073A2
:105364007B613B689B681B027A6913437B617B68A2
:10537400354A934203D07B68344A93421AD13B683E
:10538400DB68002B08D03B68DB68082B04D041F6AF
:105394005C312F48FCF71FFB7B6923F400637B61BE
:1053A4003B68DB681B027A6913437B617B6923F4E6
:1053B40080637B617B68244A934203D07B68234AE1
:1053C40093422FD13B689B69B3F5007F08D03B68BB
:1053D4009B69002B04D041F669311D48FCF7FBFAA8
:1053E4003B685B69B3F5807F08D03B685B69002B41
:1053F40004D041F66A311648FCF7EDFA3B6923F410
:1054040080533B613B6923F400533B613B685B6918
:105414001B013A6913433B613B689B691B013A6971
:1054240013433B617B683A695A607B68FA68DA61C6
:105434003B685A687B68DA637B687A691A6200BFE2
:105444001837BD4680BD00BF002C01400034014028
:10545400885B000880B586B000AF786039607B68EF
:105464001B6A3B617B681B6A23F480527B681A6267
:105474007B685B687B617B68DB69FB60FB6823F4AA
:10548400E043FB60FB6823F44073FB603B681B68EC
:105494001B02FA681343FB603B6923F400533B612E
:1054A4003B689B681B033A6913433B617B68184A5A
:1054B400934203D07B68174A934217D13B685B69D8
:1054C400B3F5807F08D03B685B69002B04D041F6BC
:1054D400A9311148FCF77FFA7B6923F480437B618F
:1054E4003B685B699B017A6913437B617B687A69DA
:1054F4005A607B68FA68DA613B685A687B681A64A8
:105504007B683A691A6200BF1837BD4680BD00BF88
:10551400002C014000340140885B000880B487B04F
:1055240000AFF860B9607A60FB681B6A7B61FB6856
:105534001B6A23F00102FB681A62FB689B693B61EA
:105544003B6923F0F0033B617B681B013A69134319
:105554003B617B6923F00A037B617A69BB6813436F
:105564007B61FB683A699A61FB687A691A6200BFD9
:105574001C37BD4680BC704780B487B000AFF8606C
:10558400B9607A60FB681B6A7B61FB681B6A23F065
:105594001002FB681A62FB689B693B613B6923F458
:1055A40070433B617B681B033A6913433B617B692E
:1055B40023F0A0037B61BB681B017A6913437B6101
:1055C400FB683A699A61FB687A691A6200BF1C3702
:1055D400BD4680BC704780B485B000AF7860396048
:1055E4007B689B68FB60FB6823F07003FB603A6890
:1055F400FB68134343F00703FB607B68FA689A6017
:1056040000BF1437BD4680BC704780B487B000AF7C
:10561400F860B9607A603B60FB689B687B617B697A
:1056240023F47F437B613B681A027B681A43BB689F
:1056340013437A6913437B61FB687A699A6000BFFC
:105644001C37BD4680BC704780B586B000AFF8609B
:10565400B9607A60FB68264A934218D0FB68254AF1
:10566400934214D0FB68B3F1804F10D0FB68224AF8
:1056740093420CD0FB68214A934208D0FB68204A2D
:10568400934204D041F692511E48FCF7A4F9BB683A
:10569400002B10D0BB68042B0DD0BB68082B0AD09C
:1056A400BB680C2B07D0BB683C2B04D041F693514C
:1056B4001448FCF790F9BB6803F01F03012202FAB7
:1056C40003F37B61FB681A6A7B69DB431A40FB685E
:1056D4001A62FB681A6ABB6803F01F03796801FA4F
:1056E40003F31A43FB681A6200BF1837BD4680BD36
:1056F400002C014000340140000400400008004038
:10570400000C0040885B000880B584B000AF78606E
:1057140039607B681B685C4A934227D07B681B68AE
:105724005A4A934222D07B681B68B3F1804F1DD044
:105734007B681B68564A934218D07B681B68554A9D
:10574400934213D07B681B68534A93420ED07B6804
:105754001B68524A934209D07B681B68504A9342A3
:1057640004D040F2B4714F48FCF735F93B681B682C
:10577400002B20D03B681B68102B1CD03B681B6897
:10578400202B18D03B681B68302B14D03B681B6857
:10579400402B10D03B681B68502B0CD03B681B6817
:1057A400602B08D03B681B68702B04D040F2B571A5
:1057B4003C48FCF710F93B685B68802B08D03B68D9
:1057C4005B68002B04D040F2B6713648FCF703F94D
:1057D4007B6893F83C30012B01D1022350E07B68B5
:1057E400012283F83C207B68022283F83D207B68F9
:1057F4001B685B68FB607B681B689B68BB60FB681D
:1058040023F07003FB603B681B68FA681343FB607A
:105814007B681B68FA685A607B681B681A4A934263
:1058240018D07B681B68194A934213D07B681B68A5
:10583400B3F1804F0ED07B681B68154A934209D0A0
:105844007B681B68134A934204D07B681B68124A26
:1058540093420CD1BB6823F08003BB603B685B6858
:10586400BA681343BB607B681B68BA689A607B683C
:10587400012283F83D207B68002283F83C2000232A
:1058840018461037BD4680BD002C0140003401404D
:105894000004004000080040000C004000100040DC
:1058A40000140040C05B000880B584B000AF78608D
:1058B40039600023FB607B681B685E4A934209D011
:1058C4007B681B685C4A934204D040F2F1715B48E8
:1058D400FCF781F83B681B68B3F5006F08D03B68A0
:1058E4001B68002B04D040F2F2715448FCF773F8A3
:1058F4003B685B68B3F5806F08D03B685B68002B3E
:1059040004D040F2F3714D48FCF765F83B689B689E
:10591400002B13D03B689B68B3F5807F0ED03B68A7
:105924009B68B3F5007F09D03B689B68B3F5407F63
:1059340004D040F2F4714148FCF74DF83B68DB6851
:10594400FF2B04D940F2F5713C48FCF744F83B685E
:105954001B69B3F5805F08D03B681B69002B04D03A
:1059640040F2F6713548FCF736F83B685B69002B6A
:1059740009D03B685B69B3F5005F04D040F2F7716E
:105984002E48FCF728F83B68DB69B3F5804F08D054
:105994003B68DB69002B04D04FF4FF612748FCF718
:1059A4001AF87B6893F83C30012B01D102233DE0C7
:1059B4007B68012283F83C20FB6823F0FF023B68EC
:1059C400DB681343FB60FB6823F440723B689B680D
:1059D4001343FB60FB6823F480623B685B681343FA
:1059E400FB60FB6823F400623B681B681343FB60A5
:1059F400FB6823F480523B681B691343FB60FB681C
:105A040023F400523B685B691343FB60FB6823F497
:105A140080423B68DB691343FB607B681B68FA6860
:105A24005A647B68002283F83C2000231846103710
:105A3400BD4680BD002C014000340140C05B00081D
:105A440080B483B000AF786000BF0C37BD4680BC23
:105A5400704780B483B000AF786000BF0C37BD4698
:105A640080BC704770B500260C4D0D4C641BA4100F
:105A7400A64209D100F022F800260A4D0A4C641B04
:105A8400A410A64205D170BD55F8043B98470136D1
:105A9400EEE755F8043B98470136F2E7205C00082E
:105AA400205C0008205C0008245C000803460244D3
:105AB400934200D1704703F8011BF9E7F8B500BF22
:105AC400F8BC08BC9E467047F8B500BFF8BC08BCDB
:045AD4009E46704733
