:020000040800F2
:10000000E0090020CD010008F94200082D38000861
:10001000313F0008C50B0008BD4700080000000084
:100020000000000000000000000000000145000882
:10003000C90B000800000000FD4400080545000849
:10004000E7010008E7010008E7010008E7010008F0
:10005000E7010008E7010008E7010008E7010008E0
:10006000E7010008E7010008E7010008E7010008D0
:10007000E7010008E7010008E7010008E7010008C0
:10008000E7010008E7010008E7010008E7010008B0
:10009000E7010008E7010008E7010008E7010008A0
:1000A000E7010008E7010008E7010008E701000890
:1000B000E7010008E7010008E7010008E701000880
:1000C000E7010008E7010008E7010008E701000870
:1000D000E7010008E7010008E7010008E701000860
:1000E000E7010008E7010008E7010008E701000850
:1000F000E7010008E7010008E7010008E701000840
:10010000E7010008E7010008E7010008E70100082F
:10011000E7010008E70100080D450008E7010008B5
:10012000E7010008E7010008E7010008E70100080F
:1001300000F002F800F03AF80AA090E8000C8244BF
:100140008344AAF10107DA4501D100F02FF8AFF29C
:10015000090EBAE80F0013F0010F18BFFB1A43F0A5
:1001600001031847B4510000D4510000103A24BFD5
:1001700078C878C1FAD8520724BF30C830C144BF0C
:1001800004680C607047000000230024002500264E
:10019000103A28BF78C1FBD8520728BF30C148BFEA
:1001A0000B6070471FB51FBD10B510BD00F031F8D2
:1001B0001146FFF7F7FF04F04BFC00F04FF803B4D3
:1001C000FFF7F2FF03BC00F057F800000948804732
:1001D00009480047FEE7FEE7FEE7FEE7FEE7FEE729
:1001E000FEE7FEE7FEE7FEE704480549054A064B41
:1001F000704700000945000831010008E0030020B5
:10020000E0090020E0050020E0050020704770476D
:100210007047754600F02CF8AE4605006946534617
:1002200020F00700854618B020B5FFF7DDFFBDE8D8
:1002300020404FF000064FF000074FF000084FF04D
:10024000000BAC46ACE8C009ACE8C009ACE8C0099A
:10025000ACE8C00921F007018D46704710B504468F
:10026000AFF300802046BDE81040FFF7A8BF0000B4
:10027000004870473000002001491820ABBEFEE75F
:1002800026000200704700002DE9F04182B000F026
:10029000E5FE40F21415C2F20005A9680446401AB2
:1002A000B0F5967F03D3287820B1E87810B902B072
:1002B000BDE8F08142F20008C4F20108404608217E
:1002C00000F082FE07464046102100F07DFE064603
:1002D0004046202100F078FE27B3002E42D00028AF
:1002E000E5D14FF4FA7000F0BDFC4046202100F04B
:1002F0006BFE06460120012703F054FF002E5DD05F
:100300000320286040F20C00C2F20000077000F0E9
:10031000A5FEE860002601200121002201230097AC
:1003200001965CE00120012603F03CFF40F20C0046
:10033000C2F200002E60067000F090FEE860002718
:1003400001200021002201230097019700F01AFBF1
:100350004FF47A7000F086FC00F05EFBAC6002B0F7
:10036000BDE8F0810120012603F01CFF0220286077
:1003700040F20C00C2F20000067000F06FFEE86070
:10038000002700200121002200230096019700F0A1
:10039000F9FA4FF4FA7000F065FC00F03DFB4FF401
:1003A0002F704FF42F714FF42F724FF42F7303F00F
:1003B000C9FEAC6002B0BDE8F08100BF0420286037
:1003C00040F20C00C2F20000077000F047FEE86047
:1003D000002000900120002101220123019700F05C
:1003E000D1FA00F019FBAC6002B0BDE8F08100006A
:1003F00070B500F033FE40F21416C2F20006B16987
:100400000446401AB0F57A7F4CD304F0EFFA054663
:100410000F2828D13078C11E02290DD240F20C01DC
:10042000C2F200010A787078012A08BF002811D0B2
:10043000022A19D104200EE0022814D140F20C0047
:10044000C2F200000178032908D001290BD1022152
:1004500005E000BF0320087002E000BF0421017026
:10046000B46100F0D9FA7078E0B10E2D18D80121EE
:10047000A94044F2C002114212D0B169611AB1F52B
:10048000FA6F0FD903280FD002281BD0012818BFFC
:1004900070BD40F20C00C2F20000032109E000BF71
:1004A0000F2DEAD070BD00BF40F20C00C2F2000078
:1004B0000221017000207070B461BDE8704000F04E
:1004C000ABBA00BF40F20C00C2F200000121017083
:1004D00000207070B46170BDB0B582B040F21410ED
:1004E000C2F200000024046040F20C00C2F20000DE
:1004F0000125057000F01EFA0020002101220023D2
:100500000094019500F03EFA02B0B0BD10B5FFF7BF
:10051000BBFE40F21414C2F200042078042809D86B
:10052000DFE800F016040C10140000BF00F01CF807
:100530000EE000BF002020700AE000BF00F07EF84F
:1005400006E000BF00F0EAF802E000BF00F03EF96C
:100550002078002808BF10BDE07818B9BDE8104029
:10056000FFF746BF10BD0000B0B582B040F21415D1
:10057000C2F20005E87808B102B0B0BD00F06EFD2F
:100580006979044631B3A879012837D14FF42F7027
:100590004FF42F714FF42F724FF42F7303F0D2FDED
:1005A0006869201AB0F5C87FE6D30120012403F062
:1005B000F9FD00F031FA4FF0000C0120012100227A
:1005C00001230094CDF804C000F0DCF9EC7002B017
:1005D000B0BD00BF04F00AFA2C61012428714FF469
:1005E0002F704FF42F714FF42F724FF42F736C71E3
:1005F00002B0BDE8B04003F0A5BD00BF04F0F6F9BD
:1006000029698446611AB1F57A7F07D928798CF077
:10061000FF01084202D00120A8716C614FF42F70D5
:100620004FF42F714FF42F724FF42F7385F804C0DD
:1006300002B0BDE8B04003F085BD0000B0B582B0A7
:1006400040F21414C2F20004E07880BB04F0CEF94A
:1006500040F20C05C2F2000529780139032913D8AC
:10066000DFE801F00218021C0F2823D14FF42F708D
:100670004FF42F714FF42F724FF42F7303F062FD7C
:100680002878012813D11AE0012000212870617018
:1006900019E000BF01206070002002E002206070BD
:1006A00001203C2104F08EF82878012807D002B000
:1006B000B0BD00BF04F00EF928780128F7D16078AA
:1006C000B0FA80F040090028F1D0E0680028EED0B0
:1006D0000120012503F066FD00F09EF900F0BEFC4C
:1006E000E168401A47F23051884209D84FF0000CB7
:1006F00000950020012100220023CDF804C006E06F
:10070000002501200021002201230095019500F021
:1007100039F90120E07002B0B0BD0000B0B582B080
:1007200040F21414C2F20004E07800284BD140F2E9
:100730000C05C2F200052878013803280ED8DFE83E
:1007400000F003070B1300BF607802280ED088B9B1
:1007500004F0C0F80EE000BF032006E0012028707E
:100760000020607006E000BF0220607001203C2184
:1007700004F028F82878012825D1607818BB0120DA
:10078000012503F00FFD00F047F900F067FCE16878
:10079000401A49F6404188420AD84FF0000C0095B3
:1007A0000020012100220023CDF804C007E000BF93
:1007B000002501200021002201230095019500F071
:1007C000E1F80120E07002B0B0BD0000B0B582B029
:1007D00040F21414C2F20004E07808B102B0B0BDD7
:1007E00040F20C05C2F200052878013803280FD822
:1007F000DFE800F002070C146078022818D0002807
:10080000ECD102B0BDE8B04004F064B8032206E0C9
:10081000012028700020607002B0B0BD02220120CB
:100820003C21627002B0BDE8B04003F0CBBF00BF16
:1008300001203C2103F0C6FF28780128CED1607842
:100840000028CBD100F0E8F8A0780130C1B203292C
:10085000A07007D84FF4FA7002B0BDE8B04000F0C5
:1008600001BA00BF0120012503F09CFC00F0F6FB5B
:10087000E1684FF0000C401A42F2E021C0F20201A0
:10088000884205D80095002001210022002304E0C1
:1008900001200121002201230095CDF804C000F0C1
:1008A00071F80120E07002B0B0BD0000F0B581B079
:1008B000044600F0D3FB40F23016C2F20006317855
:1008C00005469CB191B942F20000C4F201004FF418
:1008D00080510122012700F09FFB75603770284688
:1008E000281AA04208D201B0F0BD00BF0029FAD0FA
:1008F0007068281AA042F6D342F20000C4F2010048
:100900004FF480510022002400F086FB347001B0C7
:10091000F0BD000080B500F0FBF803F08DFD00F0A5
:1009200009F8FFF7D9FD4FF42F70BDE8804004F0BF
:10093000DBB80000B0B541F60004C4F2010404F5D0
:10094000006528460221002200F066FB2046802137
:10095000002200F061FB28460421002200F05CFB2D
:1009600020460421002200F057FB204608210022E7
:1009700000F052FB204610210022BDE8B04000F0FC
:100980004BBB00002DE9F04741F60008C4F2010816
:1009900008F5006A15460C460246DDE9086900289C
:1009A00050464FF002011F4618BF012200F034FBF1
:1009B000002C18BF012440468021224600F02CFB69
:1009C000002D18BF0125504604212A4600F024FBC3
:1009D000002F18BF0127404604213A4600F01CFBB7
:1009E000002E18BF012640460821324600F014FBB5
:1009F000B9F1000F18BF4FF00109404610214A46D7
:100A0000BDE8F04700F008BB80B50020FFF74EFFBF
:100A1000BDE88040FFF77ABDF0B581B041F6000433
:100A2000C4F2010400F01AFB40F23017C2F20007D2
:100A30003978054621B17868281AFA280ED216E0CE
:100A400004F500604FF480510122012600F0E4FA21
:100A50007D603E702846281AFA2808D304F5006005
:100A60004FF480510022002500F0D6FA3D7000F0CE
:100A7000F5FAB9680546401A642847D378780528FE
:100A800020D804F500663046022100F0AFFA204677
:100A9000802100F0ABFA3046042100F0A7FA20468E
:100AA000042100F0A3FA2046082100F09FFA204616
:100AB000102100F09BFA7878BD600130787001B0A9
:100AC000F0BD00BF062821D104F5006528460221AB
:100AD0000022002600F0A0FA20468021002200F02B
:100AE0009BFA28460421002200F096FA20460421B1
:100AF000002200F091FA20460821002200F08CFA32
:100B000020461021002200F087FA7E7001B0F0BD6F
:100B1000B0B540F24014C2F200042046002102F0B9
:100B20007BFD2046042102F077FD2046082102F0DB
:100B300073FD20460C2102F06FFD40F2F024C2F25A
:100B400000042046002102F067FD2046042102F047
:100B500063FD2046082102F05FFD20460C2102F0D3
:100B60005BFD242440F28810C4F2000447F6FF75B0
:100B7000C2F200000421256002F092F840F2D01089
:100B8000C2F200000421C4F8005402F089F840F2D7
:100B90001820C2F200000421C4F8005802F080F8C6
:100BA00040F26020C2F200000421C4F8005C02F0B0
:100BB00077F840F2A820C2F20000BDE8B04001F092
:100BC00003BA0000FEE700007047000040F2041185
:100BD000C2F200010A6802604A6842608A68826064
:100BE000C968C1607047000010B52420C4F200003D
:100BF00040F2000ED0F8001847F6FF7CC7F6FF7EE3
:100C000040F20413C0F800C80EF10042C2F2000323
:100C100001FB02E11C68A4EB214119600168C0F8E6
:100C200000C001FB02E15C68A4EB21415960D0F8EF
:100C3000001CC0F800CC01FB02E19C6804EB2141E0
:100C40009960D0F80014C0F800C401FB02E0D96834
:100C500001EB2040D86010BDEFF3108072B600BFEA
:100C6000FEE70000B0B5044600F0F8F9054640F292
:100C70000000C2F200000078611C18BF044400BFED
:100C800000F0ECF9401BA042FAD3B0BD2DE9F04FC3
:100C900083B08146A0F18040A0F584304FEAB020B7
:100CA00007280D46019006D345F2A320C0F60000A8
:100CB000BD2103F085FD28680021B1EB104F01D163
:100CC00080B230B945F2A320C0F60000BE2103F087
:100CD00077FD68684FF6FF71C1F2100188424FF648
:100CE000FF71C1F221010BDC122800F25F810121AA
:100CF00001FA00F00F21C0F20601084222D155E1AD
:100D000088420FDC0021C1F2110188421AD0002173
:100D1000C1F21201884215D00021C1F2210188429E
:100D200010D043E10021C1F2220188420AD0002103
:100D3000C1F23101884205D00021C1F2320188425E
:100D400040F034812868002800F03B8141F60041E2
:100D5000C4F201010622894508BF052201994FF618
:100D6000084B4FF0000A01244FF00F0E4FF000081F
:100D70000027CFF6FF7B052938BF0A46009208E01E
:100D8000286808F1010830FA08F10AF1040A00F0B5
:100D9000188104FA08F63042F2D00198072809D3E6
:100DA00045F2A320C0F60000CD2103F009FD4FF06D
:100DB0000F0E012468684FF6FF71C1F210018842DE
:100DC00020DC122800F29680DFE800F0420A5C6E18
:100DD000949494949494949494949494947082009D
:100DE000EF68781E0328C0F0858045F2A320C0F686
:100DF0000000D52103F0E4FCEF684FF00F0E012452
:100E000078E000BF4FF6FF71C1F2210188420FDC8C
:100E10000021C1F2110188421AD00021C1F2120151
:100E2000884215D00021C1F22101884210D061E032
:100E30000021C1F2220188420AD00021C1F2310111
:100E4000884205D00021C1F23201884252D100BF50
:100E5000A86803280AD345F2A320C0F60000F721B2
:100E600003F0AEFCA8684FF00F0E012440B101283A
:100E700014BFC9F81460C9F8106008273AE000BF31
:100E8000042737E0E868411E03290AD345F2A3206E
:100E9000C0F60000E32103F093FCE8684FF00F0E6A
:100EA000012400F1080725E0002723E0E868411E3F
:100EB00003290AD345F2A320C0F60000DC2103F089
:100EC0007FFCE8684FF00F0E0124071D12E000BF01
:100ED000E868411E03290AD345F2A320C0F60000AA
:100EE000EA2103F06DFCE8684FF00F0E012400F1D9
:100EF0000C0700BF50464946B8F1080F24BF203800
:100F000004310A680EFA00F39A4307FA00F010431E
:100F10000860E879C0067FF533AF41F21801C4F2EA
:100F20000201086840F2004C40F0010008600868C7
:100F3000C4F2010C00F001000290029828F00300B6
:100F4000604450F80B100AF00C020EFA02F39943B9
:100F5000009B03FA02F2114340F80B106868C102CB
:100F6000DCF8081054BFB1433143CCF8081040F20C
:100F70000C41C4F201018202096854BFB1433143FC
:100F8000820340F20C42C4F201021160DCF804104A
:100F900054BFB1433143C003CCF80410DCF8000067
:100FA00054BFB0433043CCF80000E9E645F2A3203B
:100FB000C0F60000BF2103F003FC286800287FF47E
:100FC000C5AE03B0BDE8F08FB0B50C46054639B9E3
:100FD00045F2A320C0F600004FF4DA7103F0F0FBF5
:100FE000A868204018BF0120B0BD0000B0B50C4675
:100FF000054639B945F2A320C0F600004FF4F6715A
:1010000003F0DEFBE86800EA040124EA000040EA9D
:1010100001402861B0BD000070B516460C4605467B
:1010200021B16EB1012E0FD12C6170BD45F2A3200C
:10103000C0F600004FF4EA7103F0C2FB002EF1D1BC
:1010400024042C6170BD00BF45F2A320C0F600004F
:1010500040F2D51103F0B4FB2C6170BD40F2D830E2
:10106000C2F200000068704740F2000040F2D83140
:10107000C2F20000C2F2000100780A681044086061
:101080007047000080B542F20000C4F2020001681F
:1010900041F010010160032000F0AEF8032000F0E1
:1010A00005F800F027F8002080BD000070B540F280
:1010B0000006C2F2000640F208013278C2F20001D6
:1010C0004FF47A730968B3FBF2F20446B1FBF2F114
:1010D000084600F077FC0F2C4FF0010508D838B90E
:1010E0004FF0FF3021460022002500F045F87460E3
:1010F000284670BD80B582B041F21800C4F20200EB
:10110000016841F001010160016801F001010191F4
:101110000199416841F080514160406800F0805081
:1011200000900098052000F067F80420C4F2010048
:101130000168022262F31A61016002B080BD000002
:10114000B0F1FF3F10DDC1B200F01F00012202FA32
:1011500000F04EF20012CEF2000242EAD10121F07C
:1011600003010860704700BF45F2DC20C0F60000B4
:10117000BD2103F025BB000070B515460E46102AB0
:10118000044606D345F2DC20C0F60000A92103F096
:1011900017FB102E06D345F2DC20C0F60000AA2172
:1011A00003F00EFB4EF60C50CEF2000001684FF03B
:1011B000FF33C1F3022181F00702042A28BF042271
:1011C000033903FA02F238BF002126EA02028A40FC
:1011D00003FA01F104F00F0325EA0101043B114376
:1011E000184409010C3004F16042B4F1FF3FC8BF5C
:1011F00002F56440017070BD10B50446033805283F
:1012000006D345F2DC20C0F60000912103F0D8FAA5
:101210004EF60C50CEF2000001684FF6FF0211406E
:1012200064F30A2141F0806141F0FD71016010BD5D
:101230002DE9F04381B0002800F0D8800446007802
:101240000D46000700F0B280032D07D345F26B2056
:10125000C0F6000040F2373103F0B2FA42F2000863
:10126000C4F20208D8F8000000F00700A8420DD22E
:10127000D8F8000020F007002843C8F80000D8F88C
:10128000000000F00700A84240F0B080206841F262
:1012900004098107C4F202091ED5410705D5D9F812
:1012A000001041F4E061C9F80010010705D5D9F834
:1012B000001041F46051C9F80010A1686FF00702F6
:1012C00002EB3112082A80F0E580D9F8002022F0E4
:1012D000F0021143C9F80010C00773D1D8F800001C
:1012E00000F00700A8420CD9D8F8000020F0070051
:1012F0002843C8F80000D8F8000000F00700A84212
:1013000074D1206841071AD5E1686FF0030202EB3F
:101310003122042A0CD34FEA31224AB145F26B2024
:10132000C0F6000040F2A23103F04AFA2068E168FA
:10133000D9F8002022F4E0621143C9F80010000738
:101340001AD520696FF0030101EB302104290BD37A
:101350004FEA302141B145F26B20C0F6000040F267
:10136000A93103F02DFA2069D9F8001021F4605159
:1013700041EAC000C9F80000D9F8002002F00C00D2
:10138000082841F20020C0F27A0067D145F2E81344
:10139000C2F38341C0F60003595CD20352D440F635
:1013A0000010C0F23D00484358E000BF45F26B20FA
:1013B000C0F6000040F2363103F002FA032DBFF40C
:1013C00045AF4BE76068032808D345F26B20C0F6B1
:1013D00000004FF4597103F0F3F96068022809D056
:1013E000012829D159F8041C890307D4012001B030
:1013F000BDE8F08359F8041C8901F7D5D9F800102D
:1014000021F003010843C9F80000FFF727FE064654
:1014100041F28837D9F80000616800F00C00B0EBA9
:10142000810F3FF45BAFFFF719FE801BB842F1D983
:10143000032001B0BDE8F08359F8041C8907D5D515
:10144000DCE700BFD9F8002045F2E613C2F34042C2
:10145000C0F600039A5C4843B0FBF2F0D9F80010E4
:1014600045F2D612C1F30311C0F60002515C40F2FE
:10147000080220FA01F140F20400C2F20000006804
:10148000C2F200021160FFF711FE002001B0BDE8BA
:10149000F08300BF4FEA3112002A3FF416AF45F245
:1014A0006B20C0F6000040F25D3103F089F920683E
:1014B000A1680AE72DE9F04182B0002800F0AA8077
:1014C0000446006858B110F00F0108D145F26B20B6
:1014D000C0F6000040F2651103F072F9206841F295
:1014E0000006C007C4F202062ED06068002818BFAC
:1014F000B0F5803F40F00E81706800F00C000428C9
:101500001CD0706800F00C00082802D17068C0037D
:1015100014D46068002800F0ED81B0F5A02F00F031
:101520000182B0F5803F00F00182306820F4803005
:101530003060306820F48020FBE100BF3068800319
:1015400002D56068002865D02078800738D52069EA
:10155000022807D2606920280FD2706810F00C0FA3
:1015600017D120E045F26B20C0F6000040F29F1139
:1015700003F026F960692028EFD345F26B20C0F60E
:1015800000004FF4D07103F01BF9706810F00C0FDD
:1015900009D0706800F00C00082840F09180706855
:1015A000C00300F18D803068800702D520690128D2
:1015B00030D13068616920F0F80040EAC100306045
:1015C000207800072AD42078400749D4E06903280E
:1015D00008D345F26B20C0F6000040F2AD2103F0C5
:1015E000EFF8E06990B1716801F00C01082940F052
:1015F000B38001280ED07068216A00F480328A42DC
:1016000008D1616A00F47010884203D1002002B052
:10161000BDE8F081012002B0BDE8F081A069022898
:1016200008D345F26B20C0F600004FF4F07103F0D0
:10163000C7F8A069002800F07B806020C4F2422037
:101640000121C0F82014FFF709FD0546706A8007E4
:1016500000F1B480FFF702FD401B0228F6D976E1C5
:10166000E068052800F2EA80012101FA00F010F09C
:10167000230F00F0E380F06910F0805808D1F06982
:1016800040F08050F061F06900F0805000900098C8
:1016900047F20007C4F200073868C00528D438684C
:1016A00040F480703860FFF7D9FC05463868C00503
:1016B0001ED4FFF7D3FC401B6428F7D947E100BFD5
:1016C0002069002800F0A4806020C4F2422001219B
:1016D00040F8601CFFF7C2FC054600BF3068800779
:1016E0003FF567AFFFF7BAFC401B0228F6D92EE1A1
:1016F000E068002800F0C280052800F0D9800128A9
:1017000000F0DA80306A20F001003062306A20F0A8
:101710000400D4E0B0F5A02F3FF4EEAE45F26B200C
:10172000C0F6000040F26B1103F04AF8E4E600BF97
:101730006020C4F242200021C0F82014FFF78EFC84
:10174000054600BF706A80077FF53DAFFFF786FC56
:10175000401B0228F6D9FAE060270228C4F242278B
:101760007AD1206A40F48030B0F5803F07D045F24E
:101770006B20C0F6000040F2B62103F021F8606A49
:101780004FEAB0400F2807D345F26B20C0F60000A7
:1017900040F2B72103F014F800203860FFF75EFC38
:1017A000054600BF3068800140F1D680FFF756FC47
:1017B000401B02284FF00300F4D928E740F208004C
:1017C000C2F20000006844F6D351C1F26201A0FBEE
:1017D0000101480A019000BF00BF0198411E002886
:1017E00001913FF4F0AE00BF0198411E0028019125
:1017F0003FF4E9AE00BF0198411E002801913FF47B
:10180000E2AE00BF0198411E00280191E4D1DAE662
:101810006020C4F24220002140F8601CFFF71EFC4B
:10182000054600BF306880077FF5CAAEFFF716FC9B
:10183000401B02284FF00300F4D9E8E645F26B2084
:10184000C0F6000040F20F2102F0BAFFF06910F07C
:1018500080583FF414AF1BE700203860FFF7FEFB11
:10186000044600BF306880017FF5D0AEFFF7F6FB7D
:10187000001B02284FF00300F4D9C8E6306A20F0BC
:1018800001003062306A20F004003062FFF7E6FBAE
:10189000054641F2883700BF306A800720D5FFF740
:1018A000DDFB401BB8424FF00300F5D9AFE600BFA7
:1018B000306A40F004003062306A40F0010030626B
:1018C000FFF7CCFB054641F2883700BF306A80073E
:1018D00006D4FFF7C3FB401BB842F7D937E000BF7F
:1018E000B8F1000F7FF472AEF06920F08050F06123
:1018F0006CE600BF306820F480303060306820F43F
:1019000080203060FFF7AAFB054600BF30688003E7
:101910007FF51AAEFFF7A2FB401B64284FF00300CF
:10192000F4D974E6306840F480203060306840F4C8
:1019300080303060FFF792FB054600BF30688003BF
:101940003FF502AEFFF78AFB401B6428F6D903205F
:1019500002B0BDE8F08100BF206AB0F5803F18D129
:10196000A16841F40030B0F5003F03D14FF480305E
:101970000AE000BF45F26B20C0F6000040F2CD2126
:1019800002F01EFFA168206A726822F4003211433F
:1019900071607168626A21F47411084310437060C9
:1019A00001203860FFF75AFB044600BF3068800111
:1019B0003FF52CAEFFF752FB001B02284FF003004F
:1019C000F4D924E6411E0020B0EB116F1CBF0120AA
:1019D00070474EF21002CEF2000251604EF62351D3
:1019E000CEF20001F0230B70072190601160704768
:1019F0007047000070470000F0B581B007460068EE
:101A000042F60042C4F2010290420D460DD043F26C
:101A10000041C4F20101884207D045F23020C0F6EF
:101A2000000040F2F17102F0CBFE286840F4006043
:101A3000B0F5006F28D1686840F48060B0F5806F21
:101A400030D1A8684FEA3020042838D2E868B0F5D1
:101A5000807F40D2286940F48050B0F5805F48D143
:101A6000686940F40050B0F5005F50D1E86940F477
:101A70008040B0F5804F58D197F83C00012860D1E4
:101A8000022001B0F0BD00BF45F23020C0F60000DA
:101A900040F2F27102F094FE686840F48060B0F5A4
:101AA000806FCED045F23020C0F6000040F2F371D6
:101AB00002F086FEA8684FEA30200428C6D345F21B
:101AC0003020C0F6000040F2F47102F079FEE868C0
:101AD000B0F5807FBED345F23020C0F6000040F262
:101AE000F57102F06DFE286940F48050B0F5805F1A
:101AF000B6D045F23020C0F6000040F2F67102F098
:101B00005FFE686940F40050B0F5005FAED045F26A
:101B10003020C0F6000040F2F77102F051FEE86993
:101B200040F48040B0F5804FA6D045F23020C0F69A
:101B300000004FF4FF6102F043FE97F83C000128DB
:101B40009ED095E85F0023F47C5322F470521A4330
:101B500021F4F041114320F4E040084324F4C04153
:101B600008433043E96920F480403A6808435064F0
:101B7000002087F83C0001B0F0BD0000B0B504467D
:101B8000006840F6FF72C4F2000290420D460FDC7E
:101B900040F2FF71C4F2000188421DDCB0F1804FB9
:101BA00034D040F20041C4F2000188422ED08DE0D2
:101BB00042F6FF31C4F2010188421BDC41F2000110
:101BC000C4F20001884221D041F20041C4F2000178
:101BD00088421BD07AE000BF40F60001C4F2000149
:101BE000884213D040F60041C4F2000188420DD073
:101BF0006CE000BF42F60041C4F20101884205D00A
:101C000043F20041C4F2010188425FD128684FEAE3
:101C10003010082807D345F23020C0F6000040F20B
:101C2000B57102F0CDFD686840F08000802807D0D3
:101C300045F23020C0F6000040F2B67102F0C0FD5F
:101C400094F83C0001284FF0020008BFB0BD84F8B2
:101C50003D002068426881682B6822F070021A43B8
:101C600040F6FF33C4F200039842426010DCB0F14A
:101C7000804F1FD040F20042C4F20002904219D0BF
:101C800040F60002C4F20002904213D017E000BFF9
:101C900040F60042C4F2000290420BD043F20042F0
:101CA000C4F20102904205D042F60042C4F20102A1
:101CB000904204D16A6821F08001114381600120C3
:101CC00084F83D00002084F83C00B0BD45F230208F
:101CD000C0F6000040F2B47102F072FD28684FEACD
:101CE0003010082897D29EE7002804BF01207047D3
:101CF00070B50446006840F6FF71C4F2000143F27B
:101D0000004540F600468842C4F20105C4F20006D0
:101D100010DC40F2FF71C4F2000188421EDCB0F119
:101D2000804F35D040F20041C4F2000188422FD0EC
:101D300026E000BF42F6FF31C4F20101884217DC01
:101D400041F20001C4F20001884221D041F2004179
:101D5000C4F2000188421BD012E000BF40F600012F
:101D6000C4F20001884213D0B04211D008E000BF95
:101D700042F60041C4F20101884209D0A84207D0CE
:101D800045F2F810C0F6000040F2131102F018FD01
:101D9000A0684FEA3010062800F2C080012101FA45
:101DA00000F010F0570F00F0B9802069002818BF2C
:101DB000B0F5807F40F0A480E0684FF6FF710138F5
:101DC000884239D2A06940F08000802841D194F83F
:101DD0003D0028B9002084F83C00204600F0A8F817
:101DE000022084F83D00206840F6FF320168C4F20A
:101DF000000290423ADCB0F1804F41D040F2004303
:101E0000C4F2000398423BD040F60003C4F2000342
:101E1000984235D0904239DCB0F1804F40D040F24A
:101E20000042C4F2000290423AD040F60002C4F2EE
:101E30000002904234D037E045F2F810C0F60000BE
:101E40004FF48B7102F0BCFCA06940F08000802848
:101E5000BDD045F2F810C0F6000040F2171102F0B4
:101E6000AFFC94F83D000028BAD1B3E7B04207D0E8
:101E7000A84205D042F60043C4F201039842C9D1FA
:101E8000A36821F0700119439042C5DDB04207D02C
:101E9000A84205D042F60042C4F20102904203D1AA
:101EA000226921F440711143A36921F08001626825
:101EB000E6681943A8420160C662826205D042F614
:101EC0000041C4F20101884201D16169016301212D
:101ED0004161002084F8461084F83E1084F83F10D9
:101EE00084F8401084F8411084F8421084F84310BC
:101EF00084F8441084F8451084F83D1070BD00BF8C
:101F0000B0F5007F3FF458AF45F2F810C0F600007E
:101F100040F2151102F054FC4EE700BF45F2F810F4
:101F2000C0F600004FF48A7102F04AFC3DE7000061
:101F300080B584B0006841F20001C4F2000188421B
:101F40001AD043F20041C4F2010188422CD042F67B
:101F50000041C4F20101884233D141F21800C4F2B9
:101F60000200016841F400610160006800F4006053
:101F70000390039804B080BD41F21800C4F202003F
:101F80004168002241F0100141604068002100F0EA
:101F90001000029002983620FFF7EEF8362004B0C9
:101FA000BDE88040FFF7CCB841F21800C4F202004F
:101FB000016841F400510160006800F40050019094
:101FC000019804B080BD000010B50446006840F6DA
:101FD000FF71C4F20001884210DC40F2FF71C4F2CC
:101FE000000188421EDCB0F1804F3DD040F200413C
:101FF000C4F20001884237D02EE000BF42F6FF3124
:10200000C4F2010188421BDC41F20001C4F200016C
:10201000884229D041F20041C4F20001884223D015
:102020001AE000BF40F60001C4F2000188421BD054
:1020300040F60041C4F20001884215D00CE000BF18
:1020400042F60041C4F2010188420DD043F2004142
:10205000C4F20101884207D045F2F810C0F6000032
:102060004FF4E87102F0ACFB94F83D0001281CBF6E
:10207000012010BD022084F83D00206840F6FF32A8
:10208000C168C4F20002904241F00101C1600FDC5E
:10209000B0F1804F1ED040F20041C4F200018842EE
:1020A00018D040F60001C4F20001884212D018E0B6
:1020B00040F60041C4F2000188420BD043F20041D7
:1020C000C4F20101884205D042F60041C4F2010188
:1020D000884206D1816801F00701062904BF00206B
:1020E00010BD016841F001010160002010BD000039
:1020F000B0B5044690F83C0001284FF0020008BF3C
:10210000B0BD0D46012184F83C1084F83D002A68DA
:102110004F2A09DC1F2A13DD202A22D0302A20D0A2
:10212000402A1ED014E000BF6F2A0DDD702A18D09F
:10213000B2F5805F15D0B2F5005F12D008E000BFA5
:102140007AB1102A0DD003E0502A0AD0602A08D0B4
:1021500045F2F810C0F6000041F2BE4102F030FB3B
:102160002A6821684FF6777388684F2A20EA0300AF
:1021700088604FF001001FDC1F2A43DD202A45D074
:10218000302A43D0402A40F0958240F6FF30C4F216
:102190000000814200F3D880B1F1804F00F0EE8062
:1021A00040F20040C4F20000814200F0E78040F6B7
:1021B0000000C4F20000D7E06F2A3DDD702A7BD01A
:1021C000B2F5005F00F09080B2F5805F40F072825F
:1021D00040F6FF70C4F2000081424FF0000000F3AF
:1021E000058140F2FF72C4F20002914200F36A825C
:1021F000B1F1804F00F05E8240F20042C4F2000272
:1022000076E200BF12B1102A40F0548240F6FF304F
:10221000C4F2000081422BDCB1F1804F44D040F287
:102220000040C4F2000081423ED040F60000C4F2FB
:102230000000814238D02DE0502A6DD0602A40F055
:10224000398240F6FF30C4F20000814200F3E280A0
:10225000B1F1804F00F0F88040F20040C4F200007D
:10226000814200F0F18040F60000C4F20000E1E09D
:1022700040F60040C4F20000814215D042F6004012
:10228000C4F2010081420FD043F20040C4F20100C9
:10229000814209D045F2F810C0F6000041F23051F9
:1022A00002F08EFA21682A68886820F070001043D6
:1022B00040F00700FCE100BF40F6FF30C4F2000030
:1022C000814200F3F980B1F1804F00F00F8140F2BC
:1022D0000040C4F20000814200F0088140F6000096
:1022E000C4F20000F8E000BF40F6FF30C4F2000086
:1022F000814200F33781B1F1804F00F04D8140F20F
:102300000040C4F20000814200F0468140F6000027
:10231000C4F2000036E100BF40F6FF30C4F2000016
:10232000814200F37581B1F1804F00F08B8140F262
:102330000040C4F20000814200F0848140F60000B9
:10234000C4F2000074E100BF40F60040C4F2000097
:10235000814213D042F60040C4F2010081420DD008
:1023600043F20040C4F20100814207D045F2F81068
:10237000C0F6000041F21D5102F022FA68680A28F6
:1023800005D80121814040F2054211420AD1B0F541
:10239000004F07D045F2F810C0F600004FF4A951E5
:1023A00002F00EFAE868102808D345F2F810C0F6DB
:1023B000000041F2215102F003FAE86821686A68DE
:1023C0000B6A0D6A23F00A0325F001050D628D6981
:1023D0001A4325F0F00545EA001088610A62886812
:1023E00040F0470020F0300062E100BF42F6FF32CB
:1023F000C4F20102914200F3718141F20002C4F281
:102400000002914200F0568141F20042C4F2000203
:102410006EE100BF40F60040C4F20000814213D0DC
:1024200042F60040C4F2010081420DD043F2004068
:10243000C4F20100814207D045F2F810C0F6000056
:1024400041F20D5102F0BCF968680A2805D8012153
:10245000814040F2054211420AD1B0F5004F07D049
:1024600045F2F810C0F6000041F2105102F0A8F950
:10247000E868102808D345F2F810C0F6000041F2D1
:10248000115102F09DF9E86821686A680B6A0D6ACB
:1024900023F0A00325F010050D628D6943EA0212B6
:1024A00025F4704545EA003088610A62886840F08A
:1024B000670020F01000FBE040F60040C4F200008E
:1024C000814213D042F60040C4F2010081420DD097
:1024D00043F20040C4F20100814207D045F2F810F7
:1024E000C0F6000041F2D14102F06AF9A8684FEA53
:1024F0003030042807D345F2F810C0F6000041F24E
:10250000D44102F05DF968680A2805D801218140AC
:1025100040F2054211420AD1B0F5004F07D045F212
:10252000F810C0F6000041F2D54102F049F9E86820
:10253000102808D345F2F810C0F6000041F2D64149
:1025400002F03EF9E8682168D5E901238D681A4355
:1025500025F47F4542EA002028438860886840F0DF
:102560007700A5E040F60040C4F20000814213D09D
:1025700042F60040C4F2010081420DD043F2004017
:10258000C4F20100814207D045F2F810C0F6000005
:1025900041F2E94102F014F9A8684FEA303004280A
:1025A00007D345F2F810C0F6000041F2EC4102F00A
:1025B00007F968680A2805D80121814040F20542E0
:1025C00011420AD1B0F5004F07D045F2F810C0F61D
:1025D000000041F2ED4102F0F3F8E868102808D35A
:1025E00045F2F810C0F6000041F2EE4102F0E8F8C2
:1025F000E8682168D5E901238D681A4325F47F45F1
:1026000042EA002028438860886840F480404FE018
:1026100040F60040C4F20000814213D042F6004070
:10262000C4F2010081420DD043F20040C4F2010027
:10263000814207D045F2F810C0F6000041F2FD419A
:1026400002F0BEF868680A2805D80121814040F2EE
:10265000054211420AD1B0F5004F07D045F2F810FB
:10266000C0F600004FF4A85102F0AAF8E86810285C
:1026700008D345F2F810C0F6000041F2015102F013
:102680009FF8E86821686A680B6A0D6A23F00A03FC
:1026900025F001050D628D691A4325F0F00545EA24
:1026A000001088610A62886840F0570020F020001E
:1026B00088600020012184F83D10002184F83C103E
:1026C000B0BD00BF40F60002C4F200029142F1D05A
:1026D00040F60042C4F200020AE000BF42F60042A7
:1026E000C4F201029142E5D043F20042C4F2010279
:1026F0009142DFD045F2F810C0F6000041F2CA4125
:1027000002F05EF8D5E70000002804BF0120704702
:102710002DE9F04F81B00446006840F6FF36C4F260
:10272000000643F2004742F600488946B042C4F230
:102730000107C4F201080FDCB0F1804F1ED040F257
:102740000041C4F20001884218D040F60001C4F2F2
:102750000001884212D009E040F60041C4F20001B5
:1027600088420BD0404509D0B84207D045F2F81056
:10277000C0F6000040F6D83102F022F8A0684FEA17
:102780003010062800F29681012101FA00F010F0C5
:10279000570F00F08F812069002818BFB0F5807FA7
:1027A00040F0F880A06940F08000802840F000816F
:1027B000D9F800000138032880F00881D9F8080012
:1027C0000138032880F01081D9F818000138032857
:1027D00080F01881D9F8040040F00200022840F08F
:1027E0002081D9F8140040F00200022840F028812E
:1027F000D9F80C004FEAB000042880F03081D9F8F5
:102800001C004FEAB000042880F03881D9F810008D
:10281000102880F04081D9F82000102807D345F215
:10282000F810C0F6000040F6E43101F0C9FFE0689E
:102830004FF6FF710138884207D345F2F810C0F611
:10284000000040F6E53101F0BBFF94F83D0028B9E7
:10285000002084F83C00204600F036F9022084F87D
:102860003D00206844F207028168B04221EA02017B
:102870008160016820DCB0F1804F27D040F2004237
:10288000C4F20002904221D040F60002C4F20002DD
:1028900090421BD0B0421FDCB0F1804F26D040F2F6
:1028A0000042C4F20002904220D040F60002C4F27E
:1028B000000290421AD01DE040F60042C4F200022D
:1028C000904203D0B84201D04045E3D1A26821F044
:1028D00070011143B042DFDD40F60042C4F2000255
:1028E000904203D0B84201D0404503D1226921F47F
:1028F00040711143A36921F080016268E6681943C1
:10290000B8420160C662826201D0404501D161696E
:1029100001630121416182688369D0F820E0D9E92F
:10292000006CD9E9027B46EA020AD9F818604FF632
:10293000FF7823EA080347EA06264FF6FC47BE4322
:10294000D9E9077543EA0B03D9F81020334343EA6A
:10295000072343EA02122EF02203D9F8147043EA47
:102960000C0342EA053243EA0713C0F808A082616B
:10297000036284F8461084F83E1084F83F1084F80F
:10298000421084F8431084F83D10002001B0BDE8E7
:10299000F08F00BFB0F5007F3FF404AF45F2F810B0
:1029A000C0F6000040F6DA3101F00AFFFAE600BF97
:1029B00045F2F810C0F6000040F6DB3101F000FFF0
:1029C000D9F8000001380328FFF4F8AE45F2F810FA
:1029D000C0F6000040F6DC3101F0F2FED9F8080044
:1029E00001380328FFF4F0AE45F2F810C0F60000FD
:1029F00040F6DD3101F0E4FED9F818000138032873
:102A0000FFF4E8AE45F2F810C0F6000040F6DE3103
:102A100001F0D6FED9F8040040F0020002283FF48D
:102A2000E0AE45F2F810C0F6000040F6DF3101F0EC
:102A3000C7FED9F8140040F0020002283FF4D8AED7
:102A400045F2F810C0F600004FF43E6101F0B8FE08
:102A5000D9F80C004FEAB0000428FFF4D0AE45F2DC
:102A6000F810C0F6000040F6E13101F0A9FED9F8F7
:102A70001C004FEAB0000428FFF4C8AE45F2F8107D
:102A8000C0F6000040F6E23101F09AFED9F81000DD
:102A90001028FFF4C0AE45F2F810C0F6000040F672
:102AA000E33101F08DFED9F820001028BFF4B7AE55
:102AB000BDE600BF45F2F810C0F6000040F6D9317F
:102AC00001F07EFE67E6000070B586B00068002168
:102AD00000F140404FEAB0200328CDE904110391F2
:102AE000029100F2DB80DFE800F0034D83B700BF06
:102AF00041F21800C4F20200416840F6000441F0BF
:102B0000010141604168C4F2010401F00101019139
:102B10000199016802AD41F00401016001680026DD
:102B200001F0040101910199016841F0080101607F
:102B30000068294600F00800019001984FF4004019
:102B400002902046CDE90366FEF7A0F80820CDE903
:102B5000020604F5806029460496FEF797F80420E3
:102B6000C4F201004FF2FF320168CFF6FF0202F516
:102B70001062114041F0E06141F48071016006B0E3
:102B800070BD00BF41F21800C4F20200416841F07C
:102B900002014160416801F002010191019901685F
:102BA00041F008010160006802A900F008000190EE
:102BB0000198302002900020CDE9030040F600008B
:102BC000C4F2010000F58060FEF760F80420C4F252
:102BD000010001684FF2FF32CFF6FF02114001F110
:102BE000E06101F5807101F5E061016006B070BD42
:102BF00041F21800C4F20200416841F00401416052
:102C0000416801F0040101910199016841F020013E
:102C10000160006802A900F02000019001984FF4C3
:102C2000405002900020CDE9030040F60000C4F2BD
:102C3000010000F54060FEF729F80420C4F201000D
:102C400040F200120168C0F2007202F57062114396
:102C5000016006B070BD00BF41F21800C4F202006E
:102C6000416841F008014160416801F008010191AB
:102C70000199016841F004010160006802A900F0B7
:102C8000040001900198032002900020CDE9030088
:102C900040F60000C4F20100FDF7F8FF06B070BD79
:102CA0002DE9F047044690F83E6090F83F7090F8A8
:102CB00042A090F84390006840F6FF38C4F2000844
:102CC00040450D4610DCB0F1804F1FD040F200416E
:102CD000C4F20001884219D040F60001C4F200019C
:102CE000884213D068E000BF40F60041C4F2000102
:102CF00088420BD042F60041C4F20101884205D05F
:102D000043F20041C4F20101884255D1042D5DD047
:102D100065B9012E4FF0010008BFBAF1010F5CD177
:102D2000022084F83E0084F842002BE0012E4FF090
:102D3000010008BF012F50D1BAF1010F4DD1B9F1F7
:102D4000010F18BFBDE8F087022084F83E0084F828
:102D50003F0084F8420084F843009DB1276847454E
:102D600078DCB7F1804F00F0938040F20040C4F26D
:102D70000000874200F08C8040F60000C4F20000A2
:102D800078E000BF2568012045456FF0010143DC74
:102D9000B5F1804F00F0A78040F20042C4F200027B
:102DA000954200F0A08040F60002C4F20002954275
:102DB00000F0998042E000BF45F2F810C0F6000034
:102DC00040F6954101F0FCFC042DA1D1012F4FF0FC
:102DD000010008BFB9F1010F02D0BDE8F08700BFC4
:102DE000022084F83F0084F8430025681020454500
:102DF0006FF010015ADCB5F1804F74D040F2004200
:102E0000C4F2000295426ED040F60002C4F2000205
:102E1000954268D05CE000BF40F60042C4F2000278
:102E2000954260D042F60042C4F2010295425AD067
:102E300043F20042C4F20102954254D045F2F81028
:102E4000C0F6000041F6925101F0BAFC01206FF08B
:102E5000010148E040F60040C4F20000874217D06C
:102E600042F60040C4F20100874211D043F2004014
:102E7000C4F2010087423D460BD045F2F810C0F67F
:102E8000000041F6925101F09BFC256801E000BF73
:102E90003D46386A20F001003862386A40F001008F
:102EA0003862102045456FF01001A4DD40F6004265
:102EB000C4F20002954216D042F60042C4F201026A
:102EC000954210D043F20042C4F2010295420AD06A
:102ED00045F2F810C0F6000041F6925101F070FC86
:102EE00010206FF010012A6A11402962296A0843F4
:102EF00028622068016841F0010101600020BDE8FE
:102F0000F08700007047000010B5016804460869AA
:102F1000800744BFC8685FEA807039D408694007F9
:102F200044BFC8685FEA40703ED40869000744BFE8
:102F3000C8685FEA007045D40869C00644BFC86825
:102F40005FEAC0604AD40869C0071CBFC8685FEA6E
:102F5000C07051D10869000644BFC8685FEA0060CC
:102F600052D40869400644BFC8685FEA406053D441
:102F70000869800646BFC8685FEA806010BD6FF0D0
:102F8000200220460A61BDE81040FEF733BD00BFB5
:102F90006FF002000861012020778869800743D024
:102FA0002046FFF7AFFF45E06FF004000861022004
:102FB0002077886910F4407F40D02046FFF7A2FFB9
:102FC00042E000BF6FF00800086104202077C86964
:102FD00080073DD02046FFF795FF3FE06FF01000DF
:102FE000086108202077C86910F4407F3AD0204655
:102FF000FFF788FF3CE000BF6FF00100086120464A
:1030000000F002FC2168A5E76FF08000086120460F
:10301000FEF7EEFC2168A4E76FF04000086120464F
:1030200000F002FC2168A3E7204600F025F82046C6
:1030300000F0F0FA2168002020776FE7204600F0CA
:103040001BF8204600F0E6FA2168002020776CE7A4
:10305000204600F011F8204600F0DCFA216800203C
:10306000207769E7204600F007F8204600F0D2FA02
:1030700021680020207766E7704700002DE9F04FB7
:1030800081B016460D460C2A044605D80120B040F2
:1030900041F21111084209D13C2E07D045F2F81037
:1030A000C0F6000041F27E0101F08AFB286840F082
:1030B0001000702812D1A86840F0020002281AD12E
:1030C000286940F00400042822D194F83C0001282B
:1030D0002AD1022001B0BDE8F08F00BF45F2F81000
:1030E000C0F6000041F27F0101F06AFBA86840F0E1
:1030F00002000228E4D045F2F810C0F600004FF4B8
:10310000845101F05DFB286940F004000428DCD004
:1031100045F2F810C0F6000041F2810101F050FBC9
:1031200094F83C000128D4D04FEAB60101200329CD
:1031300084F83C0000F24181DFE801F002301A48D7
:10314000206840F6FF31C4F20001884200F3848019
:10315000B0F1804F00F09B8040F20041C4F20001CA
:10316000884200F0948040F60001C4F2000183E040
:10317000206840F6FF31C4F2000188424ADCB0F119
:10318000804F62D040F20041C4F2000188425CD01E
:1031900040F60001C4F200014CE000BF206840F698
:1031A000FF31C4F20001884200F38080B0F1804F0B
:1031B00000F0978040F20041C4F20001884200F024
:1031C000908040F60001C4F200017FE0266840F6DE
:1031D000FF30C4F2000043F2004242F60041864252
:1031E000C4F20102C4F2010100F38C80B6F1804FF9
:1031F00000F09F8040F20040C4F20000864200F0E0
:10320000988040F60000C4F20000864200F09180F1
:1032100082E000BF40F60041C4F20001884214D0B1
:1032200042F60041C4F2010188420ED043F200414F
:10323000C4F20101884208D045F2F810C0F600003F
:1032400041F2AD0101F0BCFA2068294601F044FAD0
:10325000206850F81C1F20E040F60041C4F2000135
:10326000884214D042F60041C4F2010188420ED0D7
:1032700043F20041C4F20101884208D045F2F8103F
:10328000C0F6000041F28B0101F09AFA206829464D
:1032900001F042F9206850F8181F41F00801016060
:1032A000016821F004010160296982E040F60041D3
:1032B000C4F20001884214D042F60041C4F2010178
:1032C00088420ED043F20041C4F20101884208D086
:1032D00045F2F810C0F6000041F29C0101F070FACE
:1032E0002068294601F086F9206850F8181F41F43B
:1032F00000610160016821F48061016029690902AF
:1033000057E000BF40F60040C4F20000864210D0F3
:103310008E420ED096420CD045F2F810C0F6000056
:103320000E4641F2BE01174601F04AFA31462668C0
:103330003A46D6F820A0306A964220F48050306297
:103340007768D6F81CB0D5F80080D5F8089001D081
:103350008E4215D1696941F48070B0F5807F3046A6
:1033600009D045F2F810C0F6000041F6A93101F08D
:1033700027FA6969206827F4804242EA811700E051
:1033800030462BF4E64242EA08227760F2612AF4E2
:1033900000516A6841EA09312B693264316250F8A0
:1033A0001C1F41F400610160016821F4806101602B
:1033B00019020268114301600020002184F83C10CA
:1033C00001B0BDE8F08F0000002804BF0120704765
:1033D00070B50446006840F6FF71C4F2000143F284
:1033E000004540F600468842C4F20105C4F20006DA
:1033F00010DC40F2FF71C4F2000188421EDCB0F123
:10340000804F35D040F20041C4F2000188422FD0F5
:1034100026E000BF42F6FF31C4F20101884217DC0A
:1034200041F20001C4F20001884221D041F2004182
:10343000C4F2000188421BD012E000BF40F6000138
:10344000C4F20001884213D0B04211D008E000BF9E
:1034500042F60041C4F20101884209D0A84207D0D7
:1034600045F2F810C0F6000040F22C5101F0A8F926
:10347000A0684FEA3010062800F2C080012101FA4E
:1034800000F010F0570F00F0B9802069002818BF35
:10349000B0F5807F40F0A480E0684FF6FF710138FE
:1034A000884239D2A06940F08000802841D194F848
:1034B0003D0028B9002084F83C00204600F0A8F820
:1034C000022084F83D00206840F6FF320168C4F213
:1034D000000290423ADCB0F1804F41D040F200430C
:1034E000C4F2000398423BD040F60003C4F200034C
:1034F000984235D0904239DCB0F1804F40D040F254
:103500000042C4F2000290423AD040F60002C4F2F7
:103510000002904234D037E045F2F810C0F60000C7
:1035200040F22F5101F04CF9A06940F08000802852
:10353000BDD045F2F810C0F600004FF4A66101F0CE
:103540003FF994F83D000028BAD1B3E7B04207D064
:10355000A84205D042F60043C4F201039842C9D103
:10356000A36821F0700119439042C5DDB04207D035
:10357000A84205D042F60042C4F20102904203D1B3
:10358000226921F440711143A36921F0800162682E
:10359000E6681943A8420160C662826205D042F61D
:1035A0000041C4F20101884201D161690163012136
:1035B0004161002084F8461084F83E1084F83F10E2
:1035C00084F8401084F8411084F8421084F84310C5
:1035D00084F8441084F8451084F83D1070BD00BF95
:1035E000B0F5007F3FF458AF45F2F810C0F6000088
:1035F00040F22E5101F0E4F84EE700BF45F2F8101A
:10360000C0F6000040F22D5101F0DAF83DE700006D
:103610007047000070470000F0B581B004460068B4
:1036200040F6FF36C4F20006B0420D4610DCB0F1A1
:10363000804F1FD040F20041C4F20001884219D0EF
:1036400040F60001C4F20001884213D016E000BF2A
:1036500040F60041C4F2000188420BD043F2004121
:10366000C4F20101884205D042F60041C4F20101D2
:10367000884203D14FEAB500042807D345F2F81079
:10368000C0F6000040F2B35101F09AF865B1082D80
:1036900016D0042D14BF04F1410004F13F0000785E
:1036A00001282FD111E000BF94F83E00012829D154
:1036B000022084F83E002768B74212DD2BE000BFED
:1036C00004F14000007801281CD10220082D1DD0F3
:1036D000042D14BF84F8410084F83F002768B742E6
:1036E00019DCB7F1804F28D040F20040C4F200004E
:1036F000874222D040F60000C4F2000087421CD06E
:103700006CE000BF012001B0F0BD00BF84F84000B4
:103710002768B742E5DD40F60040C4F2000087426A
:103720000BD042F60040C4F20100874205D043F2BC
:103730000040C4F20100874250D10C2D58D801201E
:10374000A84041F21111084252D005F01F0001219A
:103750003A6A01FA00F022EA00013962396A084344
:1037600038622068B0420FDCB0F1804F2AD040F2BE
:103770000041C4F20001884224D040F60001C4F2A6
:10378000000188421ED022E040F60041C4F2000150
:10379000884217D043F20041C4F20101884205D0AB
:1037A00042F60042C4F20102904210D1426C8842BB
:1037B00042F40042426405D042F60041C4F20101E5
:1037C000884204D1816801F00701062903D001680D
:1037D00041F001010160002001B0F0BD45F2F81098
:1037E000C0F6000041F6925100F0EAFF0C2DA6D978
:1037F0003C2DAAD045F2F810C0F6000041F69351D6
:1038000000F0DEFFA1E7000080B5006841F2000192
:10381000C4F20001884218BF80BDFDF7E5F9BDE89C
:10382000804000F031BC000070470000FEE700005F
:103830002DE9F04186B04FF0000841F21800CDF8B4
:103840001480C4F20200016842F2000441F0040155
:1038500001600168C4F2010401F0040101910199C1
:10386000016802AD41F080010160016801F0800152
:1038700001910199016841F480710160016801F4CE
:10388000807101910199016841F040010160016876
:1038900001F0400101910199016841F020010160AE
:1038A000016801F0200101910199016841F01001C6
:1038B0000160016801F0100101910199016841F076
:1038C000080101600068294600F008000190019895
:1038D0004FF46040CDE90208A4F58060CDF8108077
:1038E000FDF7D4F9012720462946CDE90278CDF825
:1038F0001080FDF7CBF93820CDE902082046294693
:103900000497FDF7C3F94FF4805002A981E88101C3
:103910000226204629460596FDF7B8F99E2002A901
:103920000596A4F5006681E8810130462946FDF739
:10393000ADF920462946FDF7A9F920464FF48051FC
:103940000022FDF769FB30461C210022FDF764FBD5
:10395000204686210022FDF75FFB06B0BDE8F0811E
:1039600070B59CB041F20004C4F2010440F2401072
:10397000002104F5E052C2F2000040F60F638026F9
:103980001691CDE914111191CDE90F11CDE90D1169
:10399000CDE90B11CDE90911CDE90711CDE90511EB
:1039A000CDE90311CDE90111C0E90021C0E90213FD
:1039B000C0E904118661FEF797F9002818BFFDF7EA
:1039C0004BF94FF48050139040F24010C2F20000C7
:1039D00013A9FEF78DFB002818BFFDF73DF940F253
:1039E0004010C2F20000FFF7EFFC002818BFFDF7FF
:1039F00033F940F240100025C2F2000010A9CDE9D1
:103A00001055FEF7BBF8002818BFFDF725F9602018
:103A1000CDE9090540F24010C2F2000009A90022D8
:103A2000CDE90B55CDE90D550F95FFF727FB002884
:103A300018BFFDF711F940F24010C2F2000009A9C9
:103A40000422FFF71BFB002818BFFDF705F940F221
:103A50004010C2F2000009A90822FFF70FFB00285E
:103A600018BFFDF7F9F840F24010C2F2000009A9B2
:103A70000C22FFF703FB002818BFFDF7EDF840F21A
:103A800040154FF40050C2F200050026069001A92F
:103A900028460596CDE90366CDE901660896FDF74F
:103AA000ABFF002818BFFDF7D7F8286843F20041A4
:103AB000C4F2010188421B96CDE91966189629D0F7
:103AC00042F60041C4F2010188423AD141F21800A5
:103AD000C4F20200016841F040010160006818A9C9
:103AE00000F04000179017984FF4D440189002202F
:103AF00019901B9004F50060FDF7C8F80420C4F28B
:103B00000100016841F0E06141F0C00101601CB0BA
:103B100070BD00BF41F21800C4F20200016841F01C
:103B200010010160006818A900F0100017901798A4
:103B30004FF470701890022019901B902046FDF7EA
:103B4000A5F81CB070BD000010B58CB040F2881014
:103B50000024C2F200004FF08041C0E900140321AC
:103B6000CDE9031401214FF6FF72CDE90514CDE92B
:103B7000091403A9CDE90044C0E90242046184614B
:103B8000CDE907440B94FEF7BFFD002818BFFDF7F1
:103B900063F840F28810C2F200006946CDE90044A3
:103BA000FDF7ECFF002818BFFDF756F80CB010BD6C
:103BB00010B58CB040F2D01040F200410024C2F2A7
:103BC0000000C4F20001C0E900140321CDE9031490
:103BD00001214FF6FF72CDE90514CDE9091403A9BF
:103BE000CDE90044C0E9024204618461CDE90744A3
:103BF0000B94FEF789FD002818BFFDF72DF840F261
:103C0000D010C2F200006946CDE90044FDF7B6FFCE
:103C1000002818BFFDF720F80CB010BD10B58CB00F
:103C200040F2182040F600010024C2F20000C4F265
:103C30000001C0E900140321CDE9031401214FF66E
:103C4000FF72CDE90514CDE9091403A9CDE90044BB
:103C5000C0E9024204618461CDE907440B94FEF798
:103C600053FD002818BFFCF7F7FF40F21820C2F2FE
:103C700000006946CDE90044FDF780FF002818BF29
:103C8000FCF7EAFF0CB010BD10B58CB040F260201C
:103C900040F600410024C2F20000C4F20001C0E975
:103CA00000140321CDE9031401214FF6FF72CDE981
:103CB0000514CDE9091403A9CDE90044C0E9024285
:103CC00004618461CDE907440B94FEF71DFD0028D3
:103CD00018BFFCF7C1FF40F26020C2F20000694645
:103CE000CDE90044FDF74AFF002818BFFCF7B4FFF8
:103CF0000CB010BD80B582B040F2A82041F20002A5
:103D00000021C2F20000C4F2000241F61F434FF04E
:103D1000630CCDE90011C0E90023C0E9021C8161F8
:103D2000FDF7E2FF002818BFFCF796FF40F2A8203D
:103D3000C2F200006946FDF721FF002818BFFCF71A
:103D40008BFF02B080BD000070B59CB041F2000452
:103D5000C4F2010440F2F020002104F51052C2F236
:103D6000000040F60F6380261691CDE914111191E1
:103D7000CDE90F11CDE90D11CDE90B11CDE90911F7
:103D8000CDE90711CDE90511CDE90311CDE9011107
:103D9000C0E90021C0E90213C0E904118661FDF702
:103DA000A3FF002818BFFCF757FF4FF48050139073
:103DB00040F2F020C2F2000013A9FEF799F90028A2
:103DC00018BFFCF749FF40F2F020C2F20000FFF7F5
:103DD000FBFA002818BFFCF73FFF40F2F020002557
:103DE000C2F2000010A9CDE91055FDF7C7FE00286A
:103DF00018BFFCF731FF6020CDE9090540F2F02043
:103E0000C2F2000009A90022CDE90B55CDE90D55FC
:103E10000F95FFF733F9002818BFFCF71DFF40F29C
:103E2000F020C2F2000009A90422FFF727F90028B8
:103E300018BFFCF711FF40F2F020C2F2000009A900
:103E40000822FFF71BF9002818BFFCF705FF40F216
:103E5000F020C2F2000009A90C22FFF70FF9002898
:103E600018BFFCF7F9FE40F2F0254FF40050C2F203
:103E700000050026069001A928460596CDE90366AF
:103E8000CDE901660896FDF7B7FD002818BFFCF7DD
:103E9000E3FE286843F20041C4F2010188421B9608
:103EA000CDE91966189629D042F60041C4F2010105
:103EB00088423AD141F21800C4F20200016841F090
:103EC00040010160006818A900F0400017901798A1
:103ED0004FF4D4401890022019901B9004F5006014
:103EE000FCF7D4FE0420C4F20100016841F0E06157
:103EF00041F0C00101601CB070BD00BF41F218006C
:103F0000C4F20200016841F010010160006818A9C4
:103F100000F01000179017984FF47070189002205E
:103F200019901B902046FCF7B1FE1CB070BD00003C
:103F3000FEE700002DE9F04F81B040F29004C2F29C
:103F40000004009004F11C00FCF740FE04F11C0585
:103F5000E06A2ECD4FF06408081AE162216BE0633D
:103F6000571A616B00FB08F05E1AA16B2263A5EB88
:103F7000010B276463636664C4F848B0A56300F06E
:103F800069FF43F2F839C4F24C39494600F0E2FFC8
:103F900040F2000AC4F2824A514600F049FE05464A
:103FA00007FB08F000F056FF494600F0D3FF5146EA
:103FB00000F03EFE074606FB08F000F04BFF4946C6
:103FC00000F0C8FF514600F033FE06460BFB08F038
:103FD000A84600F03FFF4946B94600F0BBFF5146F6
:103FE000B24600F025FE06462846394600F088FD18
:103FF0005146074600F084FD314600F081FD4FF048
:104000007A5100F0A7FF00F009FF009D4946288083
:10401000404601F06BF8514601F068F8314600F077
:104020006FFD0021CBF6806100F094FF00F0F6FEFA
:1040300068805046394601F059F80146304600F094
:104040005FFD4FF07A5100F085FF0021C4F21F316F
:1040500000F0EEFD0021C4F27A4100F07BFF00F099
:10406000DDFE2178A88059B144F84C8FC4E9019A4B
:104070002046E66001B0BDE8F04F00F03FB900BF58
:1040800001B0BDE8F08F0000F0B581B040F29006BD
:10409000C2F2000606F11400FFF74CFF307800284A
:1040A0004ED05C3671CE00F0B9FE0746204600F0D7
:1040B000B5FE0446284600F0B1FE0546304600F045
:1040C000ADFE07F5616189B2B1F5E15F064619D928
:1040D00004F5616080B2B0F5E15F1DD905F561605E
:1040E00080B2B0F5E15F21D906F5616080B2B0F52C
:1040F000E15F25D80320314601B0BDE8F04000F073
:1041000081B800BF0020394600F07CF804F56160FA
:1041100080B2B0F5E15FE1D80120214600F072F8ED
:1041200005F5616080B2B0F5E15FDDD80220294677
:1041300000F068F806F5616080B2B0F5E15FD9D9AA
:1041400001B0F0BDB0B540F29005C2F20005012407
:104150002C70A5F86C00A5F86E10A5F87020A5F8D5
:10416000723000F077FE0146002000F0AFF9B5F99B
:104170006E0000F06FFE0146012000F0A7F9B5F9CE
:10418000700000F067FE0146022000F09FF9B5F9CB
:10419000720000F05FFE01460320BDE8B04000F071
:1041A00095B9000070B540F290050446C2F20005D2
:1041B00001202870002600200021C5E91B6600F0C0
:1041C00085F9B5F96E0000F045FE0146012000F0CA
:1041D0007DF9B5F9700000F03DFE0146022000F0C7
:1041E00075F9B5F9720000F035FE0146032000F0C4
:1041F0006DF9042000F0A0F820462E80BDE8704044
:1042000000F064B80A46002918BFA2F5FA62C8BFD8
:1042100001F5FA6211B2B1F5616FA8BF4FF46162A6
:1042200013B24FF2F011CFF6FF7113F5616FC8BFF3
:104230001146032888BF704709B2DFE800F0031970
:10424000293700BF4B4243F2384042F6344200293E
:1042500019B2C4F20100C4F20102D9BFC2F80018B9
:1042600000210023C2F80038C8BF494201607047EE
:104270004A4243F23840002911B2C4F20100D9BFCA
:104280004160002100224260C8BF494281607047FE
:1042900042F634400029C4F2010059BF01600021F8
:1042A0000022026048BF49424160704742F63440F4
:1042B0000029C4F2010003D481600021C16070476D
:1042C000002249428260C1607047000042F63441DA
:1042D00043F23842C4F20101C4F20102002818BFBF
:1042E0004FF46160C1F80008106050609060086091
:1042F00048608860C8607047FEE70000B0B540F2D3
:1043000038350168C2F200050446284600F044F83A
:104310006168206105F1280000F03EF8A168606145
:1043200005F1500000F038F8E168A06105F178006F
:1043300000F032F8E061B0BD042888BF70471BD19F
:1043400040F23830C2F200000021816001638165D3
:10435000C0F88010C0E90611C0E90811C0E91011C9
:10436000C0E91211C0E91A11C0E91C11C0E92411F9
:10437000C0E92611704700BF40F2383100EB8000E1
:10438000C2F2000101EBC00000218160C0E906110A
:10439000C0E90811704700002DE9F04381B00446E0
:1043A0000068D4E90285D4F8109000F09FFE276AD7
:1043B00006463946A06100F099FE0146284600F005
:1043C000C9FD05463046494600F0C4FD0146284671
:1043D00000F096FB656981463846394600F090FB4F
:1043E0000146304600F082FEE16900F089FB01469B
:1043F000284600F0AFFD0146484600F081FB01462B
:10440000404600F07DFBC4E907760026C4F2C846AA
:1044100031460546A06000F0E3FB38B90026CCF237
:10442000C8462846314600F0E2FB08B93546A6608A
:10443000284601B0BDE8F08340F238314CF6CD4259
:104440004CF28F23C2F200010020C3F64C72C3F677
:1044500075534FF07C5C08608860CA600B61C1F8DE
:1044600014C0C1E90600C1E90800886208634A6314
:104470008B63C1F83CC0C1E91000C1E912000865B6
:104480008865CA650B66C1F864C0C1E91A00C1E954
:104490001C008867C1F88000C1F88420C1F888300A
:1044A000C1F88CC0C1E92400C1E9260040F2100126
:1044B0004CF6CD424CF6CD43C2F20001C3F6CC62BD
:1044C000C3F6CC53C1E90120CB607047042888BFF4
:1044D000704709D140F23830C2F2000001608162B9
:1044E000016578300160704740F2383200EB80009F
:1044F000C2F2000202EBC00001607047704700008A
:1045000070470000FCF7B0BD7047000040F2A820E3
:10451000C2F20000FEF7F8BC2DE9F04F81B004466E
:10452000006A226A0D4622F0010121626768D4F810
:104530001880A96843F2004BD5F8009020F00200E3
:10454000C4F2010B42F6004A41EA00065C45C4F29F
:10455000010A01D0544513D1E86840F00801082948
:1045600008D045F2F810C0F6000041F6C42100F072
:1045700027F9E86826F00C0120F0040040EA010663
:104580005C4501D0544511D1A86940F40070B0F5E4
:10459000007F17D1686940F48071B1F5807F1FD129
:1045A00027F44071AA69084340EA020728F0730023
:1045B00040EA09006760A06168686063266201B034
:1045C000BDE8F08F45F2F810C0F6000041F6D121A9
:1045D00000F0F6F8686940F48071B1F5807FDFD0B3
:1045E00045F2F810C0F6000041F6D22100F0E8F8DC
:1045F0006869D5E72DE9F04F81B00446006A226A68
:104600000D4622F0100121626668D4F81880A9686E
:1046100043F2004BD5F8009020F02000C4F2010BCB
:1046200042F6004A40EA01175C45C4F2010A01D093
:10463000544515D1E86840F00801082908D045F232
:10464000F810C0F6000041F6103100F0B9F8E86843
:104650006FF0400227F0C00102EA001040EA0107B3
:104660005C4501D0544512D1A86940F40070B0F502
:10467000007F19D1686940F48071B1F5807F21D144
:1046800026F44061AA6941EA800040EA820628F4E3
:10469000E64040EA09206660A0616868A06327627E
:1046A00001B0BDE8F08F00BF45F2F810C0F6000081
:1046B00041F61E3100F084F8686940F48071B1F56C
:1046C000807FDDD045F2F810C0F6000041F61F31C2
:1046D00000F076F86869D3E72DE9F04F81B0044621
:1046E000006A226A0D4622F4807121626668D4F85D
:1046F0001C80A96843F2004BD5F8009020F40070AC
:10470000C4F2010B42F6004A40EA01275C45C4F2BC
:10471000010A01D0544515D1E86840F00801082984
:1047200008D045F2F810C0F6000041F65C3100F008
:1047300047F8E868000240F2FF4227F440619043E6
:1047400040EA01075C4501D0544512D1A86940F404
:104750000070B0F5007F19D1686940F48071B1F53F
:10476000807F21D126F44051AA6941EA001040EA35
:10477000021628F0730040EA09006660E06168688C
:10478000E063276201B0BDE8F08F00BF45F2F8108A
:10479000C0F6000041F6693100F012F8686940F493
:1047A0008071B1F5807FDDD045F2F810C0F60000D1
:1047B00041F66A3100F004F86869D3E7FEE70000CB
:1047C00070470000F0B581B041F60046C4F2010622
:1047D0000D46044630464FF40051FCF7F5FB013816
:1047E000B0FA80F04009C70030464FF48041FCF732
:1047F000EBFB012830464FF4004108BF0437FCF7BB
:10480000E3FB012806F580604FF0010108BF023785
:10481000FCF7DAFB40F20E01C2F200010B8848F20D
:104820001F561AB2642D28BF642502FB05F1C5F29C
:10483000EB16013881FB0616B0FA80F0400940F211
:104840003C113844C2F200010870711101EBD671BD
:1048500000F00F0064B10C2808D8DFE800F01B1B43
:10486000071B070707072907070729000BB216E0F0
:104870000C2827D8DFE800F0080826082626262678
:1048800022262626220000BF88B201EBD03000B2DB
:10489000401018E088B201EBD03000B2431010464F
:1048A00011461A4601B0BDE8F040FFF74BBC00BF0F
:1048B00003EBD33000B240100AB204E003EBD33074
:1048C00000B2421008B20146134601B0BDE8F04004
:1048D000FFF738BCB0B541F60044C4F201042046ED
:1048E0004FF40051FCF770FB0138B0FA80F040093A
:1048F000C50020464FF48041FCF766FB01282046A6
:104900004FF4004108BF0435FCF75EFB012804F5B5
:1049100080604FF0010108BF0235FCF755FB0138FC
:10492000B0FA80F04009284400F00F010F2940F24E
:104930000E01C2F2000140F23C120988C2F20002EC
:1049400010700DD8C0B2DFE800F01719212D350B1B
:10495000090B3B0B0B0B490B0B0900BF08B203E023
:1049600001EBD13000B24010014602460346BDE8DB
:10497000B040FFF7E7BB00BFB0BD00BF01EBD130D7
:1049800000B20022A2EB600004E000BF01EBD130D6
:1049900000B240100AB201461346BDE8B040FFF72E
:1049A000D1BB00BF0AB2002000211346BDE8B040D1
:1049B000FFF7C8BB01EBD13000B2421006E000BFE8
:1049C00001EBD13000B20022A2EB600208B2014636
:1049D0001346BDE8B040FFF7B5BB00BF08B20146C3
:1049E00000220023BDE8B040FFF7ACBBB0B541F6F4
:1049F0000044C4F2010420464FF40051FCF7E4FAED
:104A00000138B0FA80F04009C50020464FF48041DB
:104A1000FCF7DAFA012820464FF4004108BF0435BC
:104A2000FCF7D2FA012804F580604FF0010108BFBD
:104A30000235FCF7C9FA0138B0FA80F040092918AC
:104A400040F23C12C2F20002C8B21170B0BD0000C8
:104A500090B0FCF717FB00240120CDE90B44CDE911
:104A6000094406900A904FF4E0104FF4803102257B
:104A70000F9006A80594CDE90344CDE90144CDE9A2
:104A80000714CDE90D51FCF715FD28B1EFF31080A7
:104A900072B600BFFEE700BF0F20CDE901054FF45D
:104AA0008060CDE9040401A802210394FCF7C0FB57
:104AB00020B1EFF3108072B6FEE700BFFEF7B8FE3C
:104AC000FEF74EFFFFF740F8FFF772F8FFF7A6F882
:104AD000FFF7DAF8FFF70EF9FFF736F9FBF71AFFE1
:104AE000FBF792FFFCE7000080B2411EC9087C2959
:104AF0009EBF40F20E01C2F2000108807047000024
:104B000090EA010F48BF81F0004100F1F682421A9D
:104B10003CBF801A89184FEAD052A2EBD1534FF014
:104B20007F4C1CEA410F18BF9CEA026F00F03B80EB
:104B30004FF0004C4CEA00204CEA012121FA03FC22
:104B400010EB0C0C1ED202F1FF325FEA1C2040EB8E
:104B5000C25038BF70471CF07F0F4FEA400C18BF9F
:104B6000BCF17F4F38BF7047C3F12003994008BFA5
:104B700020F00100BCF17F4F38BF7047A0F1C0406A
:104B800000F0AFBA4FEA3C00000A40EBC25028BF29
:104B90001CF0FF0F4FEA400CE6D018BFBCF17F4F6E
:104BA00038BF7047EAE79CEA026F05D010EA5C0F55
:104BB00008BF00F00040704710B500F04CFA00BF8D
:104BC00064FBBE3E10B500F0F5F80CBF01200020DC
:104BD00010BD10B500F0EEF814BF0120002010BD8C
:104BE00010B500F04FF98CBF0120002010BD10B5AA
:104BF00000F048F92CBF0120002010BD10B500F0D6
:104C000075F994BF0120002010BD10B500F06EF9B9
:104C100034BF0120002010BD401058BFC0F14040FB
:104C2000491058BFC1F140418142EFF30080704705
:104C30004FF47F0C1CEAD0121EBF1CEAD11392EA7B
:104C40000C0F93EA0C0F00F0858090EA010F48BF2B
:104C500042F4807240F4000C41F400002CF07F41DB
:104C600020F07F4000B5A2EB030281420FF2081C46
:104C7000ACEB504E9EF800E0C0F100004FEA4E0E43
:104C800000FB0EFC38BF49004FEA2C1C0CFB0EF356
:104C90004FEACE1E0EEB635E4FEA112C0EFB0CFCAE
:104CA0004FEAC1214FEA1C5300FB031102F5FA023F
:104CB0004FEA112C0EFB0CFC4FEA01314FEADC4CA1
:104CC00000FB0C1142EB2242C14228BF09184CEBF9
:104CD00003335DF804EB10EB410143EBC250B2F536
:104CE0007C0F38BF704729D512F0F00F1CBF00F1C0
:104CF000C04000F000407047008182838485868731
:104D000088898B8C8D8E8F919293959697999A9C8A
:104D10009D9FA0A2A3A5A7A8AAACAEB0B2B3B5B7F9
:104D2000B9BCBEC0C2C5C7C9CCCED1D4D7D9DCDFCF
:104D3000E2E6E9ECF0F3F7FAFE0000004FEA400C7F
:104D40000CF1807CBCF17E4F28BF7047B0F1C040B1
:104D500000F0C7B90CEAD11390EA010F48BF42F442
:104D60008072624538BF634507D213F47F0F16D0B7
:104D700080EA010000F00040704710B500F06BF9C8
:104D8000097EFC3E00F005B880EA010000F000401A
:104D9000704780EA010000F0004000F0A2B912F470
:104DA0007F0F04BF0248704780EA010000F099B904
:104DB0000000C07F50EA010C00F113801CF5000FC9
:104DC00058BFBCF5000F01D48842704707D710F5D3
:104DD000000F58BF11F5000F15D488427047894263
:104DE00070471CF5000F04D5BCF5000FF7D58142C4
:104DF00070474FF0807C1CEB400F38BF1CEB410F1D
:104E000001D28142704710B500F025F99224490083
:104E10004FF000504FF08051FFF7FEBE41000B0EE7
:104E2000D3F19E0208D950F400034FEA032323FA7A
:104E300002F048BF4042704710B500F00CF900BFC7
:104E400049922480002070476FF0004282EA2000DF
:104E50007047000010F0004148BF4042B0FA80F3B4
:104E600010FA03F2C3F19D030BD051EAC35101EBD9
:104E70001220530638BF704700F1010008BF20F030
:104E80000100704750EA010C00F113801CF5000F7F
:104E900058BFBCF5000F01D48842704707D710F502
:104EA000000F58BF11F5000F15D488427047894292
:104EB00070471CF5000F04D5BCF5000FF7D58142F3
:104EC00070474FF0807C1CEB400F38BF1CEB410F4C
:104ED00001D28142704710B500F0BDF8922449001C
:104EE0004FF080504FF00051FFF796BE50EA010C92
:104EF00000F113801CF5000F58BFBCF5000F01D462
:104F00008842704707D710F5000F58BF11F5000F02
:104F100015D488427047894270471CF5000F04D5AC
:104F2000BCF5000FF7D5814270474FF0807C1CEB39
:104F3000400F38BF1CEB410F01D28142704710B5C2
:104F400000F089F8922449004FF000504FF0805152
:104F5000FFF762BE4FF47F0C1CEAD0121EBF1CEAA2
:104F6000D11392EA0C0F93EA0C0F00F0478090EAFD
:104F7000010F48BF42F480724FF0004C4CEA002011
:104F80004CEA012102EB0302A0FB0113A2F500028F
:104F9000002918BF43F001035B0028BF4FEA330329
:104FA00042EB22425FEA132C4CEBC2502EBFBCEB0B
:104FB000436FB2F57C0F70474FEA036CBCF1004FB2
:104FC00008BF20F00100B2F57C0F38BF70470BD549
:104FD00082F0FF0212F5803FC8BF704700F1C04069
:104FE000D8BF00F00040704700F5000C5FEA4C0CA1
:104FF00048BF7047B0F1C04000F073B80CEAD1135D
:1050000090EA010F48BF42F48072624538BF6345A1
:1050100004D280EA010000F00040704710B500F0B3
:105020001AF800BF8900013E00F007B800F009B887
:105030005FEA410C5FEA1C6C08D080EA010000F0D6
:1050400050B85FEA400C5FEA1C6CF6D14FF00040AC
:10505000A0F5800070470EF1020E2EF0030E5EF8F0
:10506000044B244204D44FEA4102B2F17F4F11D8DD
:105070004FEA4003B3F17F4F0CD80ED14FEAD07CFA
:105080000CEB4C0C0CF1020CB2F17F4F08BF4CEB57
:10509000D17C04E04FF0080C01E04FEAD17C0CEB2E
:1050A0004C0324FA03F404F00704B4F1040C06D210
:1050B0000EEB840CBDE810404CF0010C6047DFE8BB
:1050C0000CF0070802024FF00040A0F5800010BD70
:1050D0000846420018BFD2F1807288BF00F000403D
:1050E00010BDFF2141EAD050C005704790EA010F82
:1050F00048BF81F000413FF50AAD421A04D882F062
:105100000042A0EB020011444FEAD052A2EBD1536F
:105110004FF07F4C1CEA410F18BF9CEA026F4AD047
:105120004FF0004C4CEA00204CEA012121FA03FC2C
:10513000B0EB0C0C0FD412F0FE0F36D05FEA4C002F
:105140001DD5001240EBC25038BF70471CF03F0F16
:1051500018BF70470BE05FEA1C20A2F1010240EB90
:10516000C25038BF70471CF07F0F18BF7047C3F1A3
:105170002003994014BF401E20F0010070474FEA01
:105180001223800808BF7047B0FA80FCA2EB0C0223
:10519000CCF1280C60FA0CF093EA122F04BF00EB5C
:1051A000C25070474FEAC3707047130A5FEADC10C1
:1051B00008BF7047F6E79CEA026F04D010EA5C0F64
:1051C00008BF0020704710B5FFF745FF40DFF63EEF
:1051D00081F0004070470000000000000000010264
:1051E000030406070809010202030405060708096B
:1051F0000A0B0C0D0E0F10102E2E2F4472697665BF
:1052000072732F53544D3332463178785F48414C96
:105210005F4472697665722F5372632F73746D33B6
:1052200032663178785F68616C5F74696D2E6300F7
:105230002E2E2F447269766572732F53544D33327C
:10524000463178785F48414C5F4472697665722FC9
:105250005372632F73746D3332663178785F68618F
:105260006C5F74696D5F65782E63002E2E2F44721B
:1052700069766572732F53544D3332463178785FB7
:1052800048414C5F4472697665722F5372632F7385
:10529000746D3332663178785F68616C5F72636316
:1052A0002E63002E2E2F447269766572732F53542D
:1052B0004D3332463178785F48414C5F44726976AD
:1052C00065722F5372632F73746D33326631787841
:1052D0005F68616C5F6770696F2E63002E2E2F44CC
:1052E0007269766572732F53544D33324631787834
:1052F0005F48414C5F4472697665722F5372632F29
:1053000073746D3332663178785F68616C5F636F98
:10531000727465782E630000385300080000002086
:10532000300000006C0100086853000830000020C5
:10533000B009000088010008010000001000000012
:105340000024F4000100F40100000000CDCCCC3EAC
:1053500000000000CDCCCC3D0000000000000000AB
:08536000000000000000000045
:0400000508000131BD
:00000001FF
